:020000022000DC
:10600000706C002091A80200CB6B040065A8020010
:1060100065A8020065A8020065A802000000000053
:10602000000000000000000000000000B5A9020010
:1060300065A802000000000021A9020065A8020076
:10604000D5AB0200EDBE0300D5AB0200D5AB02001C
:10605000D5AB0200D5AB0200D5AB0200D5AB020038
:10606000D5AB0200D5AB0200D5AB0200D5AB020028
:10607000D5AB0200D5AB0200D5AB0200D5AB020018
:10608000D5AB0200D5AB0200D5AB0200D5AB020008
:10609000D5AB0200D5AB0200D5AB0200D5AB0200F8
:1060A000D5AB0200D5AB0200D5AB0200D5AB0200E8
:1060B000D5AB0200D5AB0200D5AB0200D5AB0200D8
:1060C000D5AB0200D5AB0200D5AB0200D5AB0200C8
:1060D000D5AB0200D5AB0200D5AB0200D5AB0200B8
:1060E000D5AB0200D5AB0200D5AB0200D5AB0200A8
:1060F000D5AB0200D5AB0200D5AB0200D5AB020098
:1061000053B94AB9002908BF00281CBF4FF0FF311E
:106110004FF0FF3000F00CB8ADF1080C6DE904CE83
:1061200000F008F8DDF804E0DDE9022304B0704770
:10613000704700BF2DE9F04786468C460846089E0A
:10614000154674461946002B40F0C2808542B2FACB
:1061500082F245D94AB1C2F1200300FA02FC2EFABC
:1061600003F3954043EA0C0C94404FEA154EA8B255
:10617000BCFBFEF8230C0EFB18CC08FB00F943EA2D
:106180000C43994528D9EB1808F1FF3704D29945FB
:1061900002D9A8F102072B44A3EB0903A4B2B3FB75
:1061A000FEFC0EFB1C330CFB00F044EA0344A0424F
:1061B00014D92C190CF1FF3304D2A04202D9ACF14E
:1061C00002032C44241A43EA07401EB1D4400023A2
:1061D00034607360BDE8F0874746DDE76346F1E76A
:1061E00092BB431B01214FEA154EAFB2B3FBFEFC3D
:1061F000200C0EFB1C330CFB07F840EA03439845C8
:1062000062D9EB180CF1FF3004D2984502D9ACF1F9
:1062100002002B44A3EB0803A4B2B3FBFEFC0EFB6D
:106220001C330CFB07F744EA0344A7424ED92C1950
:106230000CF1FF3304D2A74202D9ACF102032C4483
:10624000E41B43EA0040C0E7C2F1200320FA03F157
:10625000954090402EFA03F303434FEA154EAFB238
:10626000B1FBFEFC0EFB1C10190C0CFB07F841EAFD
:106270000041884504FA02F422D969180CF1FF3074
:1062800004D2884502D9ACF102002944A1EB0801EF
:106290009BB2B1FBFEFC0EFB1C110CFB07F743EAA3
:1062A00001439F420ED9EB180CF1FF3104D29F42FB
:1062B00002D9ACF102012B44DB1B41EA004192E719
:1062C0006046E3E76146F7E76046A3E76346B7E762
:1062D000834206D916B9002108467BE7C6E900E0EB
:1062E000F9E7B3FA83F78FB9834201D3724508D82F
:1062F000BEEB020460EB030301209C461EB90021A3
:1063000068E73846FAE7C6E9004CF8E7C7F1200C21
:10631000BB4022FA0CF41C432EFA0CF120FA0CF3C9
:10632000B84001434FEA14490EFA07F5B3FBF9F8F8
:106330001FFA84FE09FB18300B0C08FB0EFA43EA27
:1063400000439A4502FA07F240D9E31808F1FF30FA
:1063500004D29A4502D9A8F102002344A3EB0A0310
:1063600089B2B3FBF9F809FB183308FB0EFE41EACA
:1063700003418E452CD9611808F1FF3304D28E45B4
:1063800002D9A8F10203214443EA0040A0FB02988D
:10639000A1EB0E014145CE46434602D306D14D4501
:1063A00004D2B9EB020E68EB04030138002EA6D02C
:1063B000B5EB0E0261EB030101FA0CFC22FA07F3C4
:1063C0004CEA0303F940C6E9003198E74046C5E7C7
:1063D0004346D9E710F8012B11F8013B012A28BFE9
:1063E0009A42F7D0D01A7047034611F8012B03F8F0
:1063F000012B002AF9D17047034613F8012B002A1C
:10640000FBD1181A01387047F7B53E4DD5F85C310D
:10641000996811F0010121D101AA40F6034005F06D
:106420007FFA044600286AD10198C3681B789BB99B
:10643000BFF35B8FD5F8D430BFF35B8F05F1D40287
:1064400003F00903BFF35B8F52E8001F42E80034FA
:10645000002CF9D1BFF35B8F18F03AFC01AA0021A0
:1064600041F2030005F05CFA0446002847D1019B85
:10647000254EDA68D2F80100D2F8051003C6184696
:1064800018F026FC214601AA41F2010005F048FA65
:106490000446A0BB0198C3685A7885F870205A88D2
:1064A000A5F872201A7985F87120B3F80720A5F8AD
:1064B0007420B3F80530A5F8763018F009FC2146B1
:1064C00001AA41F2020005F02BFA0446B8B9019F77
:1064D000FA68531C413218685968344603C40833BB
:1064E00093422646F7D1094820F02EFC384618F092
:1064F000EFFB95F87C305B060AD46FF0120420465F
:1065000003B0F0BD000000207800002080000020D3
:1065100001AA002142F2030005F002FA0446002815
:10652000EDD1019BB64EDA68D2F80100D2F8051021
:1065300003C6184618F0CCFB214601AA42F202001D
:1065400005F0EEF904460028D9D1019CE368B3F8C0
:10655000012091B249B1D97839B1A5F80421DA788E
:10656000114606F1280024F01EFC204618F0B0FB6E
:1065700095F87C6016F0200618D1022140F66D4097
:1065800005F072F90446002800F0CC8002210C309E
:1065900023F09DFC0123037046702146324640F6ED
:1065A0006D4005F0BDF904460028A8D195F89C304F
:1065B0001F0712D501AA002142F21C0005F0B0F914
:1065C000044600289BD10198C368D3F80120D3F872
:1065D0000530C5E9382318F07BFB95F8D8309E06C6
:1065E00024D50DF10201684620F071FE0446002812
:1065F00085D1042142F2240005F036F90646002830
:1066000000F0908004210C3023F061FCBDF80030D4
:106610000380BDF8023043802246314642F2240016
:1066200005F07EF9044600287FF469AF95F8D8306C
:106630005C0610D501AA002142F22A0005F070F98B
:10664000044600287FF45BAF0198C3685B7885F847
:10665000203118F03DFB082142F2010005F004F959
:10666000044600285ED008210C3023F030FC95F859
:10667000D81011F0400F024640F2022308BF032356
:1066800088074CBF43F02C0043F00C0095F8D9303C
:106690008F0648BF40F0400013F0090F95F8A23074
:1066A00018BF40F4006003F00603CE0748BF40F077
:1066B0001000062B08BF40F4C070002120F0D3FC6E
:1066C0002146002242F2010005F02AF90446002882
:1066D0007FF415AF95F87C30B5F80411980624D4F2
:1066E000C9B901AA41F2050005F01AF904460028CB
:1066F0007FF405AFB5F80431019C4BB9E368B3F8FA
:106700000120A5F804219A883E48114624F04BFB4D
:10671000204618F0DDFA082140F6014005F0A4F803
:10672000044638B96FF06804E9E60029F3D16FF048
:106730000404E4E608210C3023F0C9FB95F8D830B6
:10674000D907024653BF4FF000512BA1D1E90001F8
:106750002D4820F088FC2146002240F6014005F03B
:10676000DFF8044600287FF4CAAE014601AA4FF6BE
:10677000014005F0D5F8044620BB019818F0A8FAAE
:10678000214601AA4FF6024005F0CAF80446C8B9EE
:106790000198C368B3F80130A5F8C13018F098FA31
:1067A00095F8C1305B070DD501AA21464FF603408D
:1067B00005F0B6F830B90198C3685B7885F8C03049
:1067C00018F086FA20F0F7FF044600287FF497AE11
:1067D00006F0EEFF044600287FF491AEEB79002B23
:1067E0003FF48DAE0821094820F080FB05F04CFBFA
:1067F00085E600BFAFF30080908800020080002093
:10680000D80000200801002010880002D4000020D9
:106810002DE9F843D0E90C35D0F82C805C193034E0
:10682000A0450F46164619D81D4DA3FB05011AA316
:10683000D3E90023FFF764FC0346A4EB0800A0FBA8
:10684000050123F07F4414A3D3E90023FFF758FC8C
:1068500020F07F403C603060BDE8F883DFF8409076
:106860000DA3D3E90023A8FB0901FFF749FC044667
:1068700005F1300008A3D3E90023A0FB0901FFF7CD
:106880003FFC24F07F4420F07F403C603060BDE856
:10689000F88300BFAFF300808D49FD1A07000000A8
:1068A00000CA9A3B000000009FED097B0E4B0F4A87
:1068B0000F4983ED007B9FED087B82ED007B9FED10
:1068C000087B0C4B002281ED007B1A600CF0C0BFEE
:1068D000FFFFFFFFFF1F000000000000000000009E
:1068E0001F0000000000000068010020F0160020DA
:1068F00060010020B0290020002800F046812DE929
:10690000F04FC94C94F86A2012F001058DB040F0A8
:10691000788194F82500FF2300F0030084F82630E6
:1069200014F0CEFE94F86A00420727D494F8292088
:1069300094F8353004EB820204EB8303D66AD3F873
:10694000388086B1B84831460EF036FD33785B06A4
:1069500005D506210AF008F8002800F05481B24855
:1069600041460EF029FD337813F00E0F40F09E8063
:10697000236A93B10C200DB0BDE8F08F2A4604F1D4
:106980006B01C0F3C00015F00BF8FF2884F8260057
:10699000CCD0284614F0AEFEC8E70CF0A3F8814630
:1069A000002800F054810CF0A9F88246002800F07D
:1069B0004B810EF0EFFF0546002800F04A81D0F829
:1069C00088004FF6FF732B8505F11C0B002800F0A3
:1069D000208105F17C0205F1780109F0D1FFB5F8BD
:1069E000763023F4EF6323F0070343F4887343F016
:1069F0000103A5F8763095F8393003F03F0363F0D2
:106A00007F0385F8393095F88E3023F0070385F839
:106A10008E3095F83C3023F00703002785F83C3092
:106A20004FF4C023C5F888312846C5E91277C5F868
:106A30008870A5F88C706F86C5F82E7085F83B704D
:106A40002F65A5F88E71A5F8847111F015F985F8F8
:106A50005071C5F854910FF029FA95F8943160F30C
:106A6000020385F894310FF027FA95F8943160F31A
:106A7000C50385F8943195F8803167F3410385F8B3
:106A80008031012128460FF033FE05F1D40010F0CB
:106A9000ADFEC4E9189AC4F820B0C5E905772F7097
:106AA000ED6115F0C3FF002840F0AF8094F824306A
:106AB0000121C3F342030DF12B008DF82B300AF0B6
:106AC000FDF80246002862D098F8011030460EF01A
:106AD00035FA31235549A360554BB4F86870A0FBD3
:106AE00001010025C01841F107014DA3D3E900239E
:106AF000C4E9055525706560E560FFF701FB20617D
:106B00000BF0EEFA00F109083FB9357805F00F05F2
:106B1000A5F10105B5FA85F56D0994F824002369FE
:106B200065F3000010F0010584F8240036D0414AD6
:106B300009920020106002253F4A404F04930BAE9B
:106B4000019305920321CDE902000694434600908B
:106B5000089607972A460B950BF0C4F931460CF0BE
:106B600087F8A0B9364905914AF2D8330093CDE9A8
:106B70000300CDE9010007970896069443460122D9
:106B800003210B950BF092F92EE00EF027B9236A42
:106B9000002B3FF4EFAE0EF0DFF8EBE6254A294874
:106BA000049303F247130694029591211360A7FB07
:106BB000000301FB0731214B07931F4B05934FF651
:106BC000FF730992022703930BAE15A3D3E90023A9
:106BD0000B970896FFF794FA4346CDE900503A46E2
:106BE000284603210BF07EF931460CF041F80028CD
:106BF000CDD194F86A300120034384F86A3014F050
:106C000041FD0020B7E61220B5E60EF0A5F80320FE
:106C1000B1E605F18000C5F88800DAE6AFF3008040
:106C20008D49FD1A07000000E829002000CA9A3BA0
:106C30008C49FD1ADC290020B94F030035220300DE
:106C4000D54A0300002AE78448460BF051FF07208D
:106C500091E650460BF058FF48460BF049FFF6E727
:106C600070B590F824308AB0C3F342030D46044651
:106C700001210DF1230016468DF823300AF01EF88D
:106C80007178024628460EF059F91F491F4AA0FBA9
:106C90000131981841F1070119A3D3E90023FFF747
:106CA0002FFA23699842054621D21B1A002201922D
:106CB000174A0293174BA21AA3FB02320221920930
:106CC00000230A4409AE099113490591CDE9033324
:106CD0000321D2B20696009318460BF063F93146B1
:106CE0000BF0C6FF38B9256100200AB070BDFBD992
:106CF000C21A0023DBE70C200AB070BDAFF300809E
:106D00008D49FD1A0700000000CA9A3B8C49FD1A04
:106D1000E829002009CB3D8D35220300000000004A
:106D20002DE9F04F05468BB08B46012002219A4693
:106D3000144617F065FD002202218146012009F06A
:106D40006FFE39494FF4D072284609F0F9FDC61C90
:106D5000F6B2364B00953246012100200BF03AF98D
:106D600010F0FD0F0CD0324A3249334840F62F0361
:106D70001EF0C1F9404080F311884FF0030002DF9C
:106D80002E4BA4FB0348204625A3D3E9002341460C
:106D9000FFF7B6F9089506952B690493284B20F068
:106DA0007F47A7FB0331E01A264B07934FF00702FA
:106DB000254B059302FB07114FF6FE7368EB0101AB
:106DC00003934FF47A720023FFF79AF9CDF800B0DD
:106DD000CDE9017053463246012100200BF066F8E0
:106DE00010F0FD0F0CD0124A1249134840F644032C
:106DF0001EF081F9404080F311884FF0030002DF5C
:106E0000B9F1000F02D10BB0BDE8F08F01220221D1
:106E100010460BB0BDE8F04F09F002BEAFF30080A2
:106E20008D49FD1A07000000F81600203D590300A7
:106E300028CC0400ECCC040060C7040000CA9A3BD4
:106E40008D49FD1AE5580300EDAB0300000000007A
:106E50002DE9F043C469228D4FF6FF739A428DB03D
:106E600000F088800546204611F088F995F8283012
:106E7000012B00F00F81022B00F00281002B00F0AB
:106E8000E18094F85071002F40F0FD80E68DB4F859
:106E90003080002E71D1AA8C08F101060023CDE9C3
:106EA0000A33B6B2002A70D094F93930002BC0F200
:106EB00048810023A4F88A3195F82630D90740F19B
:106EC000EF800023A4F88E310DF1270231462046D1
:106ED00010F00EFF743000F04681B4F888312BB109
:106EE000B34240F20D819B1BA4F88831B4F8843181
:106EF0002BB1B34240F2FB809B1BA4F88431258E5A
:106F000017B9A84500F0EA800135ADB294F8D13048
:106F100013F001065AD1DDE90A130A46002B40F0AE
:106F2000ED80002900F0DC801E461846228DE469C1
:106F30000694CDE903570332A74D0290CDE9001620
:106F4000D2B20121002005950BF02CF810F0FD0FB6
:106F500010D00BF0B7FE84420CD0A04AA049A14843
:106F600040F215531EF0C7F8404080F311884FF0EF
:106F7000030002DF0DB0BDE8F083AA8C4644002375
:106F8000CDE90A33B6B2002A8ED195F82630DA0759
:106F900097D4B4F88A31002B00F08280B34240F2DB
:106FA000FA809B1BA4F88A31B4F88E31002B8BD069
:106FB0009E4280F0DE809B1B9BB20022062BA4F831
:106FC0008E31228600F2AC8001277DE794F93920CA
:106FD0006FF30003002A84F8D13077DB94F8760051
:106FE000C0F3C00100F0070015F086FBB4F86E2076
:106FF000B4F86C30134403F2D51303447A4A7B4847
:107000000721E3FB0021104671A3D3E90023FFF71A
:1070100077F8DDE90A1320F07F422069226190426F
:1070200035BF161A801A002000260A46002B7FF46E
:107030007DAF56EA010C7FF479AF002850D0194695
:107040001E4673E794F88E3003F01803182B7FF474
:1070500018AFA18DB4F886218B1D9A42C4BF931F2F
:107060005B1AB4F88211CCBF9BB21346994200F070
:107070008C80A4F88231A4F88431A4F8882100E738
:107080003D2784F85071394620460DB0BDE8F043E5
:107090000EF0EEBF0023A4F88831A4F88431F0E6A6
:1070A000B4F88E31002B83D1628DB4F88C3140F26C
:1070B000E24101FB02F242F2107101FB0323013BAA
:1070C000B3FBF2F39BB2A4F88E316FE794F877002C
:1070D000012100F0070015F011FB87E73D4615E799
:1070E000002D4BD000261146304633461EE70023C4
:1070F000A4F88431204610F09BFE00E7304615E7E7
:107100000BF048FD014600283BD00023A4F888314D
:10711000238DC3801B23037100680BF005FDE5E69A
:1071200094F939309342BFF6CFAEB8F1000F7FF437
:107130004BAFD4F878315A08DB0743D4C4F8782130
:10714000C2E628460AAA0BA904F1D409FFF760FB9E
:10715000484610F08DFB18B3484610F089FB18B371
:1071600000232386A5E69DF8271020460EF080FF19
:1071700000E7082120460EF07BFFFBE6002FB1D18F
:10718000F8E60123A4F88831B0E6B4F888110029A4
:107190007FF477AE6FE73E2120460EF069FFE9E607
:1071A000FF200EF025FFD7E70246D4E91E0109F0C3
:1071B000FFFB0028D4D194F83C30580744BFA38D7E
:1071C000238676E642F00042C4F87821FCE600BF50
:1071D0008D49FD1A07000000A558030028CC0400C3
:1071E00050CD040060C704008C49FD1A00CA9A3BC8
:1071F0002DE9F04F87B0CDE90423BDF84420037892
:107200000292BDF84820BDF84080BDF84C50468E33
:10721000B0F82E90B0F814B1019104460392002BFF
:1072200000F08E80013EB6B2A368D4F80C71721BD8
:1072300092B2002B009209DAE168626823F0004301
:1072400091422CBF7F18BF18A360FF1A009A638D6C
:1072500013FB02F39BB2B3FBF8F218FB02F080B20F
:1072600083421FFA82FA5AD2C01A40F2E2425E49C1
:1072700002FB00F0A0FB010159A3D3E90023FEF7B4
:107280003FFF20F07F400744D94494F839304D4403
:10729000AD1B554440F2E246DB09E58506FB08F5E7
:1072A00052D1524A5249534840F6BA031DF023FFC7
:1072B000404080F311884FF0030002DF0026A9460A
:1072C000029BA385039BA4F88C3129462046A4F891
:1072D0002A8010F049FD484BA18D2B44881DB3FB3B
:1072E000F5F39AB29042A4F8862102D2521A063AD5
:1072F00092B2019BA4F8822113B10023A4F88E312D
:107300003B464A4631462046FFF70AFD94F8803155
:1073100043F0010384F8803107B0BDE8F08F08FB2B
:107320001231314840F2E24389B203FB01F1A1FB83
:1073300000012BA3D3E90023FEF7E2FE3F1AA3E7E7
:107340004E445E44B6B26FE7226C0099A36CDFF83E
:1073500098B002FB1133A36415F0B8FB814694F892
:107360007401C0F3420015F0B3FB049B814406FB9B
:1073700003F305FB09F9236509F574291F4B09F28D
:107380003F29A3FB09394FEA994303FB0AF0236421
:10739000A5EB0309A36C6A080344963A934228BFFD
:1073A0001346C4E911230023C4F87C31A0FB0B0170
:1073B0000BA3D3E90023FEF7A3FE114B059A3F1A56
:1073C000A3FB0230800A06FB00F005A3D3E90023EB
:1073D000A0FB0B01FEF794FE20F07F4670E700BF94
:1073E0008D49FD1A0700000000CA9A3B28CC040012
:1073F000E0C7040060C704007FC3C90183DE1B43EC
:107400005917B7D1000000002DE9F04F0B6891F833
:107410001180D3F80090037F176895B00446C3F33A
:107420008013D0F81E008DF83F30B8F1FF0F638C49
:1074300012900E461546ADF84C300DF1480A49D170
:107440009AE803001090ADF844102346E28D53F8FB
:107450002EBB9B78AB722A81D4F82A306B60D4F8AB
:107460003A30AB6105F1180094F83E300371052104
:1074700009F024FC6B7F00F03F0060F305036B779D
:1074800094F83F30C3F30402AA77A28EEA81012860
:1074900003F01F0392B205D91B3303F01F030B2B1C
:1074A00000D81ABB0022C9F8142095F8203062F3E6
:1074B000000385F82030E5680126584621462671EC
:1074C0000BF028FB28682E7129460BF02DFB15B018
:1074D000BDE8F08F10AA0DF13F01404613F07EFE8B
:1074E0009DF83F3002338DF83F30AEE7336800211E
:1074F0005960E38EEA892B8240F2E24303FB02F2F9
:107500000B92628E0D92384610F042FC94F83F20A8
:1075100097F87411520962F3430187F8741115F05A
:10752000D5FA0C9097F87401C0F3420015F0D0FA28
:107530000C9A0B99104401FB00F0B94A00F5742035
:1075400000F23F20A2FB00204A08800C963A6862B5
:10755000AA6294F8312040F2E24302FB03F3AB63EA
:10756000238FA7F88C31384610F0FEFB0B99AD4BFA
:10757000AD4AC7F890210B44B3FBF1F39AB2A7F8D8
:107580008621298A881D824204DDC1F57F41FA31B6
:107590000A4492B2A7F882216B68C7F87831234673
:1075A00013F81C2FC2F340120C92DA0700F113817A
:1075B0004FF48073A38399F8260014F005FB04F1BF
:1075C0002B03002800F0EB80626AC4F82B20228D88
:1075D0009A80B8F1FF0F00F0E680BAF804301298F4
:1075E000A4F82930C4F825009DF83F30A3771098FF
:1075F000BDF84430C4F81F00A4F82330EB8963863B
:107600002B8AA386B7F88C31E38697F87431C3F3DD
:10761000420384F8383038460EF0C8F9A881E0807B
:107620002146584674680BF075FAAB89E3801C2339
:1076300023710C9BD4F80080002B40F0BA800C9B87
:107640002377214640460BF06FFA95F85B00B5F8BA
:107650005080B5F85240012100F0070015F04EF8B7
:10766000444404F2D514DFF8CC81044482466F48C8
:107670000721E4FB080131230024BB607C6066A382
:10768000D3E90023FC60FEF73BFD20F07F4038612A
:107690000B9B6D6A0D995D1BF36840F2E24202FBA1
:1076A000013303F2B241A1EB0A0A22460221012072
:1076B00009F0B6F948460DF03BFE0246AAFB080168
:1076C000924655A3D3E90023FEF71AFDCDF80490A6
:1076D000B3685749009120F07F480AF102023A3B13
:1076E000D2B22046434401210AF0B6FC01287FD0E3
:1076F00099F82430DB0766D438460EF057F94D4B25
:10770000A5FB03A9044644A3D3E9002350464946F8
:10771000FEF7F6FC484BB668484A079220F07F45D2
:10772000A5FB0331BAEB0300454B059340F2D1139F
:10773000069708933B694FF0000BCDE903B34FF078
:10774000070303FB051169EB01014FF47A72002373
:10775000FEF7D6FC03343A3EE4B2CDE90150CDF851
:10776000008033462246012158460AF09FFB10F064
:10777000FD0F0CD0334A344934484FF4E9731DF0FF
:10778000BAFC404080F311884FF0030002DF012271
:107790000221104609F044F915B0BDE8F08FC4F895
:1077A0002B00988015E70022C4F82520A4F8292092
:1077B0001AE76B7F43F040036B77281D13F018FB2B
:1077C0000123E8833CE70023012200931846114679
:1077D0000AF000FC90E71B4A1D491C48F8231DF0E5
:1077E0008AFC404080F311884FF0030002DFDFE69F
:1077F0000BF068FA81453FF47BAF124A15491348F4
:1078000040F279231DF077FC404080F311884FF05F
:10781000030002DF6CE700BF8D49FD1A070000007E
:1078200083DE1B437FC3C901404B4C008C49FD1ACA
:10783000B1AB030000CA9A3B8D49FD1A81AB03002E
:10784000EDAB0300D8D10400ECCC040060C7040009
:10785000FCC9040034D2040010B5334C3349002372
:1078600004F1FF3C14F83320072A02EB820E05D8FE
:1078700011F83E206FF3451201F83E201CF833202A
:107880006FF300020CF833200133082BEAD1284AA9
:10789000284C002313700A7863F300020A7091F8F1
:1078A000282063F3000281F8282091F8502063F328
:1078B000000281F8502091F8782063F3000281F8EB
:1078C000782091F8A02063F3000281F8A02091F8BD
:1078D000C82063F3000281F8C82091F8F02063F318
:1078E000000281F8F02091F8182163F3000281F87A
:1078F0001821114A9FED0A7B1370104B83ED007B1A
:107900000F4B236028B1BDE810400E490E4823F00C
:1079100011BBBDE810400C4823F01ABBAFF3008048
:10792000FFFFFFFFFFFFFFFF91300020502F0020DF
:1079300070420020602E00206F420020C8180020F6
:10794000A0BB0D00E1B80300981800200000000063
:107950002DE9F04F8FB00DF137010446DFF8E0A0BC
:10796000DFF8E0800DF136000BF05CF99DF8363061
:107970009DF837B00B930AF0B3FBDAF80060A6FB72
:10798000085629A3D3E9002300278146314628461B
:10799000FEF7B6FBCDE90777069420F07F44DAF8CE
:1079A0000400234B0593A0FB08011FA3D3E9002388
:1079B000FEF7A6FB1F4B20F07F40A4FB03310722FC
:1079C00002FB0411CDE90370E81A66EB01014FF4E4
:1079D0007A720023FEF794FB0097CDE901404B46F5
:1079E0000B985A4603210AF061FA10F0FD0404D006
:1079F0006FF08B000FB0BDE8F08F0F480F4A0023E7
:107A00001BF064FC20B9DAF80C000FB0BDE8F08F71
:107A10009DF837209DF836000094234603210AF094
:107A2000D9FA6FF07300E5E78D49FD1A07000000F1
:107A300075BE03008D49FD1A04310020447B0B0004
:107A40001C31002000CA9A3B38B50F4D04460AF09D
:107A500047FBA9680AF046FB696803460B48B3FB7D
:107A6000F4F4A1FB00011C4405A3D3E90023FEF7B5
:107A700047FB20F07F40844294BF0020012038BDA6
:107A80008D49FD1A070000001C31002000CA9A3BF6
:107A9000F0B5C468636883B00546002B63D116F067
:107AA0003BFA002016F05EFA0021084616F04CFA68
:107AB00000222521082016F08BFA454B019301A8DE
:107AC00016F06EFA434940F25B6016F013FB237A1E
:107AD000C3F3420262F306132046237215F016FA2E
:107AE00014F046F958BB637A9B071FD127682E68AC
:107AF000384614F09FFD06446A6806F1090101202A
:107B000016F040FC16F0FEFC20460DF01DFC811C1A
:107B10003246C9B2384614F09BFD054670BB20467C
:107B200014F030FD88B9002003B0F0BD012013F03F
:107B30009DFD4178821C007816F0C4FBD6E7607A80
:107B400010F0030018BF0120F1E7234A234924481D
:107B500040F22C431DF0CFFA404080F311884FF0E3
:107B6000030002DFDFE793F820309A0797D01D4823
:107B7000214616F08FF916F077FAD4E7164A1A491B
:107B8000174840F214431DF0B6FA184B0721A5FB25
:107B9000030301FB05310CA3D3E90023FEF7B0FA80
:107BA0001349024613481DF0A6FA404080F311889D
:107BB0004FF0030002DF1048214616F06BF916F073
:107BC00053FA6FF08B00AFE700CA9A3B0000000049
:107BD000D6BE898E5555550008D60400CCC8040081
:107BE00060C70400D9C70300E0C704008D49FD1A2F
:107BF000B8D604008CD60400DDCA030000000000E3
:107C00002DE9F041C468A2894FF6FF739A4282B011
:107C100000F0C780054615F0A1FC2B89628AE08A36
:107C20001A4492B21044637FA28280B2411CE18266
:107C30005E064FF00001618204F1180100F18C80B2
:107C400003F03F000B46A17F009004F11F0013F0EA
:107C500087F80646D4E90B231344D4E90D0200212A
:107C60000244E1626163A16AA26394F872208B42CC
:107C700028BF0B4612F00402236377D016F04CF9AC
:107C8000002016F06FF9201D16F08AF92389A17AD9
:107C900040F25B6043EA014116F02CFA304614F0E2
:107CA000E9FC2146584816F0F5F8962016F05EFBE0
:107CB00094F85A2094F85B00C2F3C003002102F04C
:107CC000070200F0070016F07BFA204615F0A8FC2A
:107CD00027682E68384614F0ADFC06446A6806F141
:107CE0000901002016F04EFB804616F0DFFB002055
:107CF00016F0F6FB236B94F85B0003F13002A36BE4
:107D000000F00700012103EB420516F09FF94544FE
:107D1000054494F85B0000F00700022824D00428F2
:107D20000CBF4FF4BC73282301211D4416F090F9B9
:107D3000284416F0ADFBA18903313246C9B238465A
:107D400014F086FC054698BB204614F01BFCD0B905
:107D5000002002B0BDE8F0810A4603F03F03E18B4A
:107D600013F04AF8064675E71823DDE7D4E9170152
:107D700008F01EFE002881D194F8723043F004030D
:107D800084F872307AE7214A2149224840F255139B
:107D90001DF0B1F9404080F311884FF0030002DF7D
:107DA000D6E71D48214616F075F816F05DF9CFE7C5
:107DB000164A1A49174840F24B131DF09CF9184B0C
:107DC0000721A5FB030301FB05310DA3D3E9002324
:107DD000FEF796F91349024613481DF08CF940400E
:107DE00080F311884FF0030002DF1048214616F09F
:107DF00051F816F039F96FF08B00AAE7AFF3008065
:107E000000CA9A3B0000000079D8030030D7040074
:107E1000CCC8040060C70400D9C70300E0C7040051
:107E20008D49FD1A84D704008CD60400B5C7030021
:107E30002DE9F0472DED028B9FED498B4A4E84B022
:107E400004464FF02003EFF3118783F31288BFF34A
:107E50006F8FD4F8C8508DB9022104F1E00022F0F0
:107E6000B2FF002843D100238DED008B029304F173
:107E7000D00239463D481BF007FFE2E7D4F8CC209A
:107E80002B68C4F8C830954208BFC4F8CC30D4F889
:107E9000E03043F00203C4F8E030EB6823F0040361
:107EA00043F00103EB606B6887F31188BFF36F8FBA
:107EB000284698474FF02003EFF3118983F3128887
:107EC000BFF36F8FEB68990723F0010219D4EA60C2
:107ED000D4F8E03023F00203C4F8E03089F31188CD
:107EE000BFF36F8FDB05ACD41BF0AEFDA9E704F147
:107EF000D80500220121284623F06BF90028F8D18B
:107F0000B1E7306823F00303EB600028E0D00027DE
:107F1000D0F80080BA460028DAD04268954201467F
:107F20000BD1016897B972683160824200D17160EB
:107F300040F808AB1BF0A4F93946B8F1000F0BD09C
:107F4000D8F8002040460F469046E4E73960726852
:107F5000824208BF7760EBE74246F3E7AFF3008069
:107F6000FFFFFFFFFFFFFFFF1C41002086420020B4
:107F700001481BF087BA00BF7002002007B523F04C
:107F800065F94FF47A72A0FB020302FB0131C00BCA
:107F9000074A40EA4140106000234FF40042054880
:107FA000CDE900231CF04EF8002003B05DF804FB7F
:107FB000701C0020500B0020014B187800F0BAB95B
:107FC0008A410020044B1A78824202D01870FFF7D1
:107FD000F3BF0020704700BF8A41002008B523F09E
:107FE00035F94FF47A72A0FB020302FB0131C00B9A
:107FF000044A40EA41401060BDE808400020FFF715
:10800000E1BF00BF701C002008B523F01FF94FF43A
:108010007A72A0FB020302FB0131084AC30B12680B
:1080200043EA41439B1A47F23052934204DDBDE8D4
:1080300008400120FFF7C6BF08BD00BF701C00202C
:10804000014B1878704700BF8A410020F8B50446FC
:1080500010B900252846F8BD0378002BF9D00F4E43
:108060000F4FBE420FD30D4EBE42F2D2306822F007
:10807000FDFC30B1356821462868FEF7ABF90028D1
:10808000E8D00436F0E7306822F0F0FC18B135682B
:108090002B68A342DED00436E3E700BF64F004009F
:1080A00070F0040030B5184C8DB00022002303A9F5
:1080B00020461AF0A1FF08B10DB030BDDDE904156E
:1080C000039800F055F80028EFDBFF238DF81830F7
:1080D000B5FA85F35B0907908DF8203023F0B6F8E8
:1080E0004FF47A72A0FB020302FB0131C00B40EA9D
:1080F0004140C90B8DE8030006ABCDE90A010FCB67
:1081000000F032F9D1E700BF880C00201FB583F0E2
:108110000103CDE9011203930022002301A90448C1
:108120001AF014FF03481BF0ADF905B05DF804FB2D
:10813000880C0020741C002010B5044678B1094951
:10814000094822F0B3FEA36808491B6820469847F7
:10815000A3689B680BB120469847002010BD6FF0C4
:108160001500FBE7A5800200741C00200D810200B1
:108170000A2303FB00110531262905D8044B53F8C7
:10818000210008B1013870476FF01500704700BF3B
:10819000BCBE0400F8B50F4D0F4E761B07460C46CB
:1081A00005EBC105C6F3C706A64201DC00200CE0C2
:1081B0002A683B689A4209D13C716B6838461B6853
:1081C000984718B1431E012BF0D9F8BD013408358A
:1081D000EAE700BFC4E10400E4E1040000B58BB0AD
:1081E000064B074A282168461CF004F8054901227D
:1081F000684601F091FE0BB05DF804FB70DA0400F4
:108200007ADA04008B4100202DE9F04146680769C5
:108210003179F38804463068D0F810E0D0F808804F
:10822000DEF80050DA0754BF43F4B01383F4D013E0
:108230004FF0010C23F480120CFA01FCDB074CBF59
:1082400045EA0C0525EA0C05CEF80050D8F80030B8
:10825000984760BB01F0B4FF164801F0EDFE0546FB
:1082600010BB1549154822F065FE154801F08EFE39
:108270007B785BB901233B70002200230F481BF081
:1082800069F9A3681B680BB120469847318959B139
:1082900040F2E7304FF47A72002300EBC130002146
:1082A000FDF72EFF1BF052FC2846BDE8F0816FF071
:1082B0000405F9E780020020DD810200800E002025
:1082C0008DDA040008B54FF4F012002302481BF0C9
:1082D00075F900EAE07008BD800E0020F7B50C4685
:1082E0001646114901AA1F461DF030FAB0B1019B94
:1082F000A3B9012C15D10D4D224629463846B04769
:10830000002806DB2B780A486C7023B11CF063FA56
:10831000002003B0F0BD1CF070FAF9E76FF0010027
:10832000F7E76FF01500F4E770DA04008B410020E6
:108330008CBB04001FB50023CDE90233044B8DF83C
:108340000C0001A801931CF030FA05B05DF804FBA5
:1083500070BF04000268034B9A420CBF0830002033
:10836000704700BF70BF040084B030B589B00CAC5A
:1083700084E80F00002301930CAD084B00930FCD50
:1083800002AC0FC495E8030084E8030068461CF0C3
:108390000CFA09B0BDE8304004B0704774BF040067
:1083A0000268034B9A420CBF08300020704700BFA0
:1083B00074BF04001FB50023CDE90233044B8DF8D0
:1083C0000C0001A801931CF0F0F905B05DF804FB66
:1083D00080BF040082B038B504A981E80C000546CE
:1083E00011481AF06FFB0446A0B16B68012B0CD04A
:1083F000022B05D0A3B9BDE8384002B01CF023BA67
:108400001CF028FA00282046F5DCBDE8384002B010
:108410001CF012BA6FF00400BDE8384002B070479B
:108420006FF08500F8E700BF70DA040082B010B585
:1084300002A981E80C0004460B481AF043FB78B10E
:108440006368022B04D00020BDE8104002B07047E2
:108450001CF000FA0028CCBF002001206060F2E789
:108460006FF00400F0E700BF70DA04001FB50023CE
:10847000CDE90233044B8DF80C0001A801931CF0E8
:1084800094F905B05DF804FBC0BF040008B500F026
:108490003FFABDE80840014922F035BD98020020AE
:1084A00007B5084822F0E2FA48B14FF4F012002371
:1084B000CDE900230448002200231BF0C3FD03B0D4
:1084C0005DF804FBC8BB0400880B002008B5FFF76B
:1084D00041FF10B96FF0850008BDFFF7B1FD38B15D
:1084E0000138C0B20128F5D8034822F0F6FE01E0B9
:1084F000FFF7D6FF0020EFE7880B002037B50E4CC2
:10850000A5682D21EB682046984790B92D212B694D
:108510006A462046984760B9084C00982378834201
:1085200007D0C0B2207001F0CFFC10B92078FFF75F
:108530009DFF03B030BD00BFC8BB04008D410020CB
:1085400008B5054822F092FA18B1FFF7A9FF0020FC
:1085500008BD6FF01200FBE7C8BB04001FB5002385
:10856000CDE90233044B8DF80C0001A801931CF0F7
:108570001CF905B05DF804FBC8BF04001FB510244A
:108580000294044C0194BDF81840009420F0FBFCC8
:1085900004B010BDA141002007B5064B0093064969
:1085A000064805234FF424721AF072FF002003B02E
:1085B0005DF804FBD0BF040088420020B00E00200C
:1085C00070B50F4D0F4E8AB0002200236946284631
:1085D0001AF012FD044608B10AB070BD21461822F7
:1085E00004A823F0C9F910230DEB030120460596DA
:1085F000CDF818D0ADF81C3006F046FFE4E700BF18
:10860000580C0020ECBF04001FB50E490E4840F680
:10861000CD4200231AF09AFC044670B110F10B0F02
:1086200008D100220023694607481AF0E5FCFFF74D
:10863000EBFF0446204604B010BD0449044822F074
:1086400062FCF7E7A1410020580C0020A80200209E
:10865000B00E0020C208054900F007000123834046
:10866000885C03438B54FFF7CFBF00BFA1410020BC
:1086700010B4C108064C00F00700635C0122824080
:1086800023EA020363545DF8044BFFF7BDBF00BF4C
:10869000A1410020014B1970704700BFB24100207A
:1086A00010B5002003F002FC044690B901F088FDEB
:1086B000094801F06BFC094801F068FC084804F027
:1086C000E5FE084805F060F8074B08481C701AF0F2
:1086D000D9FE204610BD00BFCADB0400CEDB04007B
:1086E000F0020020E0020020B14100201003002031
:1086F000094BB1FA81F010B540090C461870FFF72C
:108700002DFF3C2C07D1054B054801221A70BDE80E
:1087100010401AF0B7BE10BDB3410020B141002097
:108720001003002070B503788AB004460E4607ADEA
:10873000032B20D8DFE803F002191B1D114928463E
:10874000FDF752FE059563780493A3780393E378CD
:1087500002932379019363790093A3790A4A1E2136
:1087600030461BF047FD0AB070BD0849E7E70849ED
:10877000E5E70849E3E7084A0A2128461BF03AFDE5
:10878000E0E700BFD1DB0400FADB0400D8DB040023
:10879000DFDB0400E9DB0400F3DB040010B588B084
:1087A0001FF0FAFA6946FFF7BDFF0024054B20468B
:1087B0001C70FFF7D3FE044B04481C701AF062FED5
:1087C00008B010BDB3410020B141002010030020CB
:1087D00070B5204E204B3068B2881C781F49B379A1
:1087E0008AB003AD0390ADF8102000202A46AB718B
:1087F00007F010FF31460722284623F071F8184B86
:108800000646D0B1ACB903202246214601241C7093
:108810000023CDE90602CDE90815ADF814308DF836
:10882000163000931A46194605A804F05BF80AB002
:1088300070BD1320A022F021E8E70A4D18700FCD7B
:1088400005AC0FC42B68236007490096334603220A
:10885000EAE700BFB8DD0400B14100206D880200E6
:10886000B241002020BE040064C0040038B50722D5
:108870000C460649054623F033F828B12B682360DF
:10888000AB88A380AB79A37138BD00BFB8DD04000D
:1088900008B5044801F040F8002818BF6FF0150033
:1088A00008BD00BFA98802000A2804D0024B187036
:1088B00002481AF0E7BD7047290B00202003002072
:1088C000084B1B780B2B4FF001000AD8984010F48E
:1088D000CD6F05D110F4016F0CBF0120002070474F
:1088E00002207047290B002007B5064B009306496C
:1088F00006480A234FF440721AF0CAFD002003B064
:108900005DF804FB7CC0040018450020980F00208F
:1089100000487047980F002008B50448FFF70CFC8A
:10892000002818BF6FF0850008BD00BFA0BB040081
:1089300010B5094C0A44914200D110BD11F8013B19
:10894000584003090001E35CC0B2434018091B0111
:10895000205CDBB25840EEE735DC0400014B1B68BD
:10896000184700BF3003002030B585B004460D46DF
:1089700010220021684622F0FFFF02238DF802300A
:108980002A46044B0193214668461BF0C3FC05B000
:1089900030BD00BF5D89020080B505460E46174612
:1089A00098461BF007F9034623F002F8DFF8189009
:1089B000044649F80030424630463946A84754F844
:1089C000090001F07DFF00BF080000002DE9F0471D
:1089D000058B04462807904611D4022905F00705A7
:1089E00040F0CD8020461CF05CFA78B10138218B34
:1089F000042811D8DFE800F0C3106D859500012927
:108A00000CBF45F0100545F02005258388F311883B
:108A1000BFF36F8FBDE8F08701F0070AAA4500F0A9
:108A2000A6800027B9463E46A368002B00F0BD8013
:108A300041F00801218388F31188BFF36F8FA1688B
:108A4000002900F0BB800D68002900F0B780D1F844
:108A50000480334652462046C047002D76D02B680E
:108A600029461D46F0E701F007035A1F012A1BD8CB
:108A7000002221F00701062B276889B2C4E90022F1
:108A800009D13B4603E0628B013262831B68002BF5
:108A9000F9D141F00201218320461CF002FA00289E
:108AA0007BD041F0200177E0042B0AD121F00701AF
:108AB00089B2218320461CF0F4F910B141F0200165
:108AC0002183218B01F0070AAA4550D00027B9461F
:108AD000AAE7236921F0070141F00601062DD3F82A
:108AE000009021832DD1B9F1000F40D041F0080151
:108AF000218388F31188BFF36F8F3A492046C84716
:108B000029E021F00701236941F0040189B2042D15
:108B1000D3F804902183E6D000273E464FF0040AA4
:108B200082E721F00701236941F0050189B2052D93
:108B3000D3F808902183D6D000273E464FF0050A8F
:108B400072E700273E464FF0060A6DE72B4687E79F
:108B5000B9F1000FD1D14FF02003EFF3118883F367
:108B60001288BFF36F8F238B23F008032383258B99
:108B7000EA062ED525F01003238305F00705666964
:108B8000218B002EBFF66FAF00232768C4E90033A6
:108B900021F0070141F001012183218B01F0070A37
:108BA000AA454FF000097FF43FAF002F9BD041F062
:108BB0000801218388F31188BFF36F8F002FC7D07E
:108BC0003D6839463346524620461CF096F92F46FA
:108BD000F4E7AB067FF51AAF25F02003238305F0F9
:108BE0000705FFE6274F040008B504464FF02002B2
:108BF000EFF3118382F31288BFF36F8F18F0D6F86A
:108C0000204602F0F7F803481BF058FF01F0C8FFB8
:108C1000FCE700BF45DC040018F0F2B82DE9F7438B
:108C20000F4606460821C06ADFF850901CF0FEFA95
:108C30003C68241A80463C6004EA0905AC4203D82B
:108C4000002003B0BDE8F08308236A462146304681
:108C50001CF05FFA0028F4D1694630461CF0F0FAA7
:108C600040B1BDF80230BDF804203C6005EA0905BA
:108C700013441D44A4EB0804E0E700BF0000FFFF1D
:108C80002DE9F047044688B000F11407384621F07A
:108C9000CCFFA06A8368DB689847E06228B96FF070
:108CA0001505284608B0BDE8F087A06A8368DB6830
:108CB00098470368013B1F2BF1D8A06A216805AAD9
:108CC00021F0B0FA0028EAD1A589002DE7D0069B53
:108CD000B5FBF3F203FB1255002DE0D1E389012B24
:108CE000DDD9E36A009593F804904FF0FF334FF01D
:108CF000FF3238461AF0DAF9E06A08211CF096FAD9
:108D0000A8460646E3891FFA85FA534508D8E38941
:108D1000434523D138461AF043FA6FF02C05C0E7DB
:108D2000A1892B04891B13FA81F14A4608232046A6
:108D300000911CF03CFA78B1694620461CF0F7F926
:108D400008F10108009908234A4620461FFA88F8CE
:108D50001CF02DFA0028DAD00135D3E753450BD1AA
:108D6000009908234A46891B20461CF020FA18B9AE
:108D7000694620461CF0DBF969462046FFF74EFFA6
:108D8000054618B138461AF00BFA8AE7009B636073
:108D90004FEA13484FEA0848C4F80880D4E90113A1
:108DA00099420FD3082301AA20461CF0B2F90546C8
:108DB0000028E7D101AB13F8012B914533D10135E0
:108DC000082DF8D163681B0C1B04694620460093EC
:108DD0001CF0ADF9A38900994A4620461CF0E7F93A
:108DE000051ECFDB636876D006EB03084FF6FF79EC
:108DF000A389CDF800801FFA88F29B1B9A422ED3DC
:108E000000236168002B43D0090C0904009120461F
:108E100069461CF08CF9009920461CF0EDF90546D6
:108E2000002D74D0AEE701A920461CF009FA626853
:108E300010B9921B6260B1E7BDF80850BDF806108A
:108E4000E06AC4F8088029441CF0F0F940449042DC
:108E5000A060EED1002DECD06FF01C0568E0082377
:108E600003AA414620461CF054F90546002889D142
:108E700003A920461CF0E4F930B1BDF80C304B4595
:108E800002D1BDF810300BB1B044B1E70123B8E70F
:108E900020461CF0B1F9054600287FF473AF6368E3
:108EA000264AA18913400B44A3EB46036360134099
:108EB000A36020461CF0A8FAB1E75B1A4A46204698
:108EC0001CF075F9051EFFF65DAF08D0E26AA368D5
:108ED00012681344A360D4E901318B42EDD8616874
:108EE000A38901EB46029A429AD1DFF85080A2682A
:108EF00001EA08039A4293D020461CF07DF905460A
:108F000000287FF43FAF636803EA0803A360A389E6
:108F1000A288A3EB46039A4206D038461AF040F9DD
:108F2000012323740025BCE620461CF056FA0546B2
:108F300038461AF035F9002DF2D0B2E60000FFFFF6
:108F40002DE9F04F1D46037C89B0044689469046C2
:108F5000002B00F0BE80C26A082110461CF066F9A2
:108F60002946824610461CF061F9A389A3EB8A03C7
:108F70009D42074600F2B0801DB1B8F1000F00F02D
:108F8000AB806368039304AA03A92046DDF80CB004
:108F90001CF08EF90646002864D1BDF810304B4510
:108FA00005D06268039B9A42EDD1E5B95AE004A965
:108FB00020461CF045F90028F3D0BDF81200BDF89A
:108FC000143075B19D420ED14FEA1B410904014492
:108FD0002B46424620461CF0B7F8002803DC064624
:108FE00040E0002B3ED0002F40D104F11403019348
:108FF0004FF0FF320198DFF8E8B04FF0FF331AF07E
:1090000055F8E3899E4261D0D4E90123F9188A42D8
:109010002FD3ADF81A3006A8FF238DF81E30ADF817
:109020001890ADF81C501CF0B9F8A1682B464246C8
:1090300020461CF087F929468246E06A1CF0F6F8C3
:10904000A2680244A260BAF1000F07D106A9204627
:109050001CF0B2F9002814BF8246AA4601981AF003
:109060009FF85646304609B0BDE8F08F5744BFB26E
:10907000BBE7E06A08211CF0D9F84FF6FF73ADF8A2
:10908000183000218DF81E30A389ADF81C1011187E
:1090900002EA0B021A44101A606006A8ADF81A1012
:1090A0001CF07CF806A920461CF086F9211D2046FC
:1090B0001CF03DF8636803EA0B03A36020461CF034
:1090C000A3F982460028C9D101369AE76FF01B0A3E
:1090D000C4E76FF00C06C5E76FF01506C2E700BFE6
:1090E0000000FFFF014B03600020704784C00400B4
:1090F00070B5114B1C680D46DCB1104B196800238C
:109100008B4202DB6FF0010070BD224612F8106B3B
:10911000864202D001331446F2E7E06810B96FF0DE
:109120001200F1E721F0A2FC0028F8D02C6000200A
:10913000EAE76FF00C00E7E73403002084C0040086
:1091400070B588B005460C46C0B269461646FFF7B2
:10915000CFFF00281BDB0098C8B1436802938368E7
:1091600022680195CDE903360023CDE90623059356
:10917000C5681CF081FA6DB12846084901AA21F0A2
:1091800055F8079808B9059B236008B070BD6FF0CB
:109190001500FAE76FF01200F7E700BF7B560400F6
:1091A000F0B40C4B0C4E5F6A0C4BB34203D36FF020
:1091B0008500F0BC70475D68BD4209D31C693CB1B5
:1091C00095F802C00579AC4502D12346F0BC18479A
:1091D0002433EAE7841C00207D0E00207D0E002051
:1091E0002DE9F047134CDFF85080DFF8509005462A
:1091F0000E461746444503D36FF08500BDE8F0875F
:109200006268D9F824309A4212D3A36983B1907866
:109210002979884205D13A4631462846BDE8F047CB
:1092200018475279012A03D13A46314628469847D1
:109230002434DFE77D0E00207D0E0020841C0020FA
:109240002DE9F0410B4CDFF8308005460E461746FD
:10925000444502D36FF0850009E063690BB92434FB
:10926000F6E73A463146284698470028F7D1BDE848
:10927000F08100BF7D0E00207D0E002010B5044659
:1092800020F094FE10F1780F00D050B9054A204626
:109290001CF015FAD2F8C43023EA0003C2F8C43037
:1092A000002010BD841C0020024B00221A605A606E
:1092B000704700BF3F1D002070B50B4B0B4CA34205
:1092C00001D3002070BD196A1E7F00220439D5B277
:1092D000AE4201D82433F2E7013211F83250854210
:1092E000F5D10120EEE700BF7D0E00207D0E0020AD
:1092F00008B509480378C3F341130A3350F8233003
:109300003BB100F1080200F110019847C043C00FC3
:1093100008BD1846FCE700BF841C002004282DE986
:10932000F14FDFF8A09004460F4616D001282DD14A
:10933000DFF88C8098F8B93043B300F065FD1F4D1D
:109340004D4520D2D5F820B04FF0000A2B7F5FFAB0
:109350008AF6B34204D82435F2E7FFF7A5FFE7E722
:109360000BEBC6060AF1010A307920F01FFE024617
:1093700030791CF0A4F9D8F8C430002A23EA00039D
:10938000C8F8C430E2DA002388F8B9300B4D4D45F7
:1093900008D30B4B1B6A6BB13946204601B0BDE8C0
:1093A000F04F1847EB681BB13A46214628469847CC
:1093B0002435ECE701B0BDE8F08F00BF7D0E002042
:1093C000841C00207D0E002073B5C4B263060D46D8
:1093D0008DF8074007D02046FFF76EFF78B10D4BA0
:1093E00093F8BA0058B10B4E204655B116F078F8F4
:1093F000F3691BB10DF1070108209847012002B065
:1094000070BD16F095F8F369002BF7D00DF1070148
:109410000920F2E7841C002073B586788DF800607F
:10942000037942791C4C43EA0223ADF80230C37839
:10943000304603F003038DF804301CF040F9D4F8F3
:10944000C430184205460BD0304600F0BFFC304611
:10945000FFF714FF21F0CAFB10B996201AF090FB19
:10946000684616F019F810F1780F03D010B10020FB
:1094700002B070BD9DF8000016F096F810F1780F5C
:1094800001D00028F3D1D4F8C43001202B4384F854
:10949000B900C4F8C430EBE7841C00202DE9F04784
:1094A000A34EB36904460F461546FBB9237803F073
:1094B0001F03012B00F09D80022B00F0048133BBC1
:1094C00094F900002A686178002834DA062912D05D
:1094D00008292BD0D9B901231370517096F8C330E5
:1094E0005B0043F00103137002232AE19847002830
:1094F000DCD100200DE06288100A011F012984469A
:1095000005D9072803D8716AD2B20C781CB96FF05C
:109510001500BDE8F0874E78664503D19A4200F009
:109520000B8101332144F0E70B780AE196F8BA3059
:109530001370012305E101390829E8D801A353F884
:1095400021F000BFDD9502000F950200EB950200AF
:109550000F950200699502000F9502000F95020019
:109560000F95020075950200A07815F083FF002882
:10957000BFD0CCE76388756A63BBFFF795FE63884D
:1095800086F8BA30F369002BB3D06A4903209847B4
:10959000AFE76B78042B10D0052B11D0022B04D130
:1095A0006F796388BB4208BF01202B781D442B785C
:1095B000002BEED10028AAD0DFE795F80380F4E76E
:1095C0006388BB42F1D1B8F1000FEED12846FFF716
:1095D00023FFEAE7FF270020B846E8E76388012B6E
:1095E00095D1002386F8C33083E76388012B8ED1A1
:1095F000F8E796F8BA30D5F800C0002B87D0756A26
:10960000A38894F804E02A46107800283FF47FAF3E
:109610005178022904D192F80480F04500F2938039
:109620000244F1E78CF800208CF80120396060E7F3
:10963000154494E00B2A7FF46AAF00274FF0FF082F
:10964000C146BA4606E06B78042B0FD0052B21D01B
:109650002B781D442B78002BF5D1F36913B15146BB
:1096600007209847002F7FF444AF50E795F8028019
:10967000A38895F803909845EAD163889945E7D186
:10968000B8F1070F1CD806EB0803AA4683F8BB9075
:109690000127DDE7A3884345DAD1A3784B450AD0FB
:1096A000AF78384600F092FB3846FFF7E7FDB0FA96
:1096B00080F77F09CCE72846FFF7AEFE0746C7E7ED
:1096C000AA460027C4E794F900206378002A18DA34
:1096D000002B7FF41CAF24792D6863060AD0204646
:1096E000FFF7EAFD00283FF412AF96F8BA30002BDE
:1096F0003FF40DAF2946204615F03AFF00236B706A
:10970000F2E6012B08D0032B7FF401AF6388002B16
:109710007FF4FDAE012103E0618800297FF4F7AEFC
:10972000A088FFF751FE00287FF4E3AEEFE600BF0C
:10973000841C00203E1D0020022829607FF4F4AE26
:109740004B883B60D5E694F9000062780028BFF6AC
:1097500071AF002A3FF466AF0A2A7FF4D8AE2A78A8
:10976000002A3FF4D4AE697804297FF461AFA97868
:109770008B427FF45DAF072B96BF9B19002393F8B4
:10978000BB308CF80030D4E613B5164C237DF3B90A
:10979000E268A168019201AB80201BF09EFF019A54
:1097A000A3681344A360E3689B1AE3606BB962B1DA
:1097B0002369E2889A4208DD94F8C82093FBF2F10D
:1097C00002FB11330BB90123237502B010BD002336
:1097D0001A4619468020237502B0BDE8104015F0E6
:1097E0000DBF00BF841C002030B585B000230246A9
:1097F0000D460193002858D1002935D108220B4687
:109800000DEB020120F0EBFB002804DA802015F0BC
:1098100067FE05B030BD2A4C029A2260039A62604E
:1098200004F13802A2609DF90820BDF80E302575BC
:10983000002AC4E903550ADB802B04D9802015F0E7
:109840004FFE0020E3E713B1C4E90333E1E7FFF77C
:109850004FFD0028DAD0E28823699A42D4BFE26043
:10986000E360FFF791FFD4E7154CD4E90215002D12
:1098700001AB04DC20F0B3FB0028CADAC6E72A46B5
:1098800020F0ADFB0028D9DB019AA3681344A36044
:10989000E3689B1AE360002BBBD104F13803A3609B
:1098A000FFF726FD0028DCD1B0E78028B1D1044BBA
:1098B000DA68002AD5D11B7D002BD2D1A9E700BFE1
:1098C000841C0020054B064A9A62064ADA62064A60
:1098D0001A63064A58629A6100207047841C00206F
:1098E0009D940200A191020041920200E1910200C8
:1098F00010B5084B93F8B84034B900F0E3F830B134
:10990000FFF7E0FF204610BD6FF07700FBE74FF058
:10991000FF30F8E7841C00202DE9F341414D044657
:109920006F6A41484FF0FF324FF0FF3319F0BEFB32
:1099300095F8B860002E6ED13C482C62E86115F0B5
:1099400077FF15F065FD041E49DB00F081FA041E67
:1099500045DB7B78012B61D1FB79002B5ED068461B
:1099600085F8C830ADF802308DF804608DF80060DD
:1099700015F092FD041E32DB802768468DF80070DA
:1099800015F08AFD041E2ADB2949304615F03CFFFC
:10999000041E24DB2649384615F036FF041E1EDB64
:1099A000244CDFF89480444520D3002015F0FCFDC2
:1099B000041E14DBD5F8C430802043F00103C5F841
:1099C000C43015F0F1FD041E09DBD5F8C43043F4B2
:1099D0008033C5F8C430012385F8B830002412481C
:1099E00019F0DEFB204602B0BDE8F081276A0026B0
:1099F000227FF3B29A4201D82434D4E707EBC302A2
:109A000057F83310107915F0FFFE01360028EFD01B
:109A10004FF0FF34E3E76FF07704E0E76FF01504F1
:109A2000DDE700BF841C0020440C00201D930200D1
:109A3000E99702007D0E00207D0E002030B51F4BFF
:109A40008BB005AA03F1100518685968144603C4C1
:109A50000833AB422246F7D11B7823701022002135
:109A600001A821F089FF12220021154821F084FF6E
:109A7000102101A820F05BFC00281BDD0828B8BFDE
:109A80000820093801AB0E491A18002012F8013FCE
:109A90000AAC04EB131403F00F0328336B440130BA
:109AA00014F8144C13F8143C0C7008284B7001F196
:109AB0000201EBD102480BB030BD00BF6EDC0400E8
:109AC000B44100202DE9F04F704C87B04FF0000BEF
:109AD00000264FF0011AB0463546B14623782BB91F
:109AE0006B4B02349C42F3D1684833E06378052B1A
:109AF0001BD8DFE803F09003C8901D3B402304A867
:109B00008DF810B0ADF812308DF814B020F039FA9D
:109B100040B1082304A8ADF8123020F032FA08B1A1
:109B2000ADF812B0BDF81230E37123781C44D5E7CC
:109B3000E378002BF9D1A3787BB108F101085FFA33
:109B400088F8F2E76B689C4209D02435514B9D425E
:109B5000F8D3002007B0BDE8F08F4F4DF6E7AB68B3
:109B6000002BEAD0414620469847E6E7002DF0D08A
:109B700000222B7F9A42ECD2296AA07801EBC20125
:109B80000B79984201D00132F3E70127E07800F029
:109B900003008DF81400207994F805C040EA0C20E9
:109BA000ADF8120094F902000028FBB228DA07F1A0
:109BB00010004FF0010C0CFA00F010EA0A0F26D149
:109BC00043F080008DF8100004A8CDE90213019243
:109BD00020F0D7F9DDE90121039BC0B99DF81020E1
:109BE000A27012F0800F18BF10330A7118BFDBB2D9
:109BF0004FF0010214BF9A40BA404AEA020A94E7C1
:109C00000120B84010EA0A0F01D11846DAE70137FF
:109C1000102FBBD1B7E7032E1DD1FFF70FFF07466B
:109C200068B1FCF7E9FB102809D13846A31C07F1FD
:109C3000100250F8041B43F8041B9042F9D123781A
:109C40006FF00201E218091B04EB5303D14213D554
:109C50000136F6B269E7002EF1D1B9F1000F3FF4F9
:109C600078AFA4EB090389F80230C3F3072389F81E
:109C7000033089F80480EBE702F801BC13F801090E
:109C800002F8020DE2E7A1464FE700BF200E0020D8
:109C90007D0E00207D0E00207D0E002010B5094BAA
:109CA00000211A461C78844205D15C681CB1482307
:109CB00003FB012010BD0131042903F14803F1D158
:109CC0000020F7E7501D00202DE9F34150F8303C0B
:109CD00010F8346C1033044610D1036950F8282C66
:109CE000990739D5EAB913F0040304D11A46194685
:109CF00030461BF0F2FC002344F8303C54F8303C72
:109D000010330BD054E9097554F81C8C20F06EFF09
:109D100000284CD02C48214621F0F5F802B0BDE8CF
:109D2000F08150F82C1C01AB30461BF0D6FC10B172
:109D30006FF01503E0E7019A54F82C3C134444F803
:109D40002C3C54F8283C9B1A44F8283C54F8243CFA
:109D5000134444F8243CD1E750F82C1C01AB3046A6
:109D600015F0C8FC0028E3D1019D54F82C3C2B448D
:109D700044F82C3C54F8283C5B1B44F8283C54F82D
:109D8000243C2B4444F8243C002DB4D0304615F03C
:109D900055FDB5FBF0F303FB1055002DABD154F886
:109DA000283C002BA7D0304615F0ECFCA6E744F881
:109DB000200CA4F1180019F063FA002DAED0424631
:109DC00039463046A847A9E7681B002010B54FF078
:109DD0002003EFF3118483F31288BFF36F8FFFF733
:109DE0005DFF50B14368103307D16FF08B034360C0
:109DF00000F13401034821F086F884F31188BFF3A1
:109E00006F8F10BD681B002070B50F4C04254FF0FC
:109E10002003EFF3118683F31288BFF36F8F63681B
:109E2000103307D16FF08B030848636004F13401ED
:109E300021F069F886F31188BFF36F8F013D04F1BB
:109E40004804E4D170BD00BF501D0020681B0020F5
:109E500070B50A4C0A4E00253146204621F026F8FE
:109E60000122A4F118001146013520F09CFF042DB9
:109E700004F14804F0D1002070BD00BF841D002013
:109E8000C99C02001FB507240294044C0194BDF83C
:109E9000184000941FF077F804B010BD2A0B002082
:109EA00010B5084C86B024788DF817400124029430
:109EB0000DF117040194BDF8204000941FF063F8E1
:109EC00006B010BD310B002000B589B064288DF8B4
:109ED000070019D80E4B18221870002102A821F093
:109EE0004BFD0C4B03930DF10703049302A90123CF
:109EF0000020ADF8143005F0C7FA10F1800F08BF4C
:109F0000002009B05DF804FB6FF01500F9E700BF11
:109F1000310B002068C104002DE9F0410F4B1C6893
:109F200005460E461746ACB14FF0FF324FF0FF33F7
:109F30000B4819F0BBF863683246D3F8088029460D
:109F40003B462046C0470446054819F029F92046FB
:109F5000BDE8F0816FF00104F9E700BF701E00203A
:109F6000300C002000230360044B5A6812B9C3E987
:109F70000000704710605860704700BF741E0020DA
:109F8000014B1860704700BF701E002030B585B0CF
:109F900000230546CDE9023301904FF0FF330C4812
:109FA0004FF0FF3219F082F80A4B1C684CB9284672
:109FB00000F0CEF80446064819F0F2F8204605B045
:109FC00030BD636820461B6801A998472468EDE707
:109FD000300C0020741E00201FB5CDE90101039252
:109FE0004FF0FF330A484FF0FF3219F05FF8094B8A
:109FF0001C682CB9064819F0D3F8204604B010BDEF
:10A00000636820461B6801A998472468F1E700BFF0
:10A01000300C0020741E0020024B0022C3E90022F5
:10A02000704700BF741E0020024B0022C3E90022CB
:10A03000FFF7F2BF7C1E002070B51B4C1B4E05467F
:10A04000B44212D31A4E1B484FF0FF324FF0FF3389
:10A0500019F02CF834687CB1286854F8141C143CAE
:10A06000FCF7B8F9C8B16469F5E721682868FCF71E
:10A07000B1F9A8B11434E3E700226A61726805F10E
:10A0800014033AB9C6E9003300240A4819F088F8E5
:10A09000204670BD13607360F6E76FF01004F4E7BC
:10A0A0006FF01004F4E700BFA8BD040020BE040058
:10A0B0007C1E0020300C00202DE9F74307460C469B
:10A0C00009B100230B601F4DDFF8809000264D453D
:10A0D0000FD31D4B1D6885B355F8148C01AA41465A
:10A0E0003846143D1BF032FB10B3D6B914BB2E46D4
:10A0F0001EE0D5F8008001AA414638461BF026FB39
:10A1000050B116B954B92E4606E0316800224046D7
:10A110001BF01CFB0028F5D11435D8E7019B236008
:10A12000F1E73168002240461BF010FB0028DDD12A
:10A130006D69D0E7019B2360D9E7304603B0BDE8E5
:10A14000F08300BFA8BD04007C1E002020BE0400D8
:10A15000F8B5184C184F06460025BC4208D3174BDB
:10A160001C682CB3143CB6B9E368E3B96469F8E73A
:10A170002EB9E3685BB9284614340546EDE720683C
:10A18000002231461BF0E2FA0028F2D1F3E79847AB
:10A19000002DF0D1F0E72068002231461BF0D6FAFE
:10A1A0000028E1D1E2E79847002D08BF0546DDE72A
:10A1B0002846F8BDA8BD040020BE04007C1E002077
:10A1C00038B50C4D0C484FF0FF334FF0FF3218F00C
:10A1D0006DFF2B783BB9FFF727FF00F06DF80446C1
:10A1E00010B901232B700024034818F0D9FF204632
:10A1F00038BD00BFC6410020300C00202DE9F047DB
:10A20000048FDFF8B0A0013498B080468946A4B22C
:10A2100000F10806651EADB2B5F5004F47D04A23E0
:10A2200005AA294630461BF020FA04F57F543F3436
:10A23000A4B20746214601230DF10B0230461BF064
:10A2400014FA002F014603DC002803DC2C46E1E76A
:10A25000002816DCB8F83830AB4209D142466B1EF4
:10A2600022F8383F4FF4004102233046FEF768FEE3
:10A27000294630461BF095F9214630461BF091F9EE
:10A28000E4E707F160030DEB0307002307F84C3CFC
:10A290005246CDF8009003AB05A80396ADF81040E8
:10A2A0001BF08AFA0028D1D018B0BDE8F087002052
:10A2B000FAE700BF275804007FB501236946022052
:10A2C0000193FEF715FF044660BB02AA01A9022014
:10A2D000FEF736FF044610B110F10C0F22D103999E
:10A2E000B1F5803F23D2009A0023946818460844B1
:10A2F00084421AD30133082BF9D10E4DA982EB8287
:10A300005368AB602846D368EB631BF026FB04461A
:10A3100040B9094E6E602846FFF724FE28466E605D
:10A32000FFF72EFE204604B070BD9BB2E5E76FF04C
:10A330002004F7E7841E002070030020014B1868FA
:10A34000704700BF84030020F0B5082289B01BF0DD
:10A35000DCFCCB6A03930B6B04934B6B05938B6B09
:10A360000693CB6B079313466A460C4606460027B6
:10A3700011461046CDE9017700971BF0D5FB314619
:10A38000054630461BF0D0FB216B0391616B0491B5
:10A39000A16B0591E16B0544CDE906171046114606
:10A3A0001BF0C2FB3146054430461BF0BDFB0544A3
:10A3B000206A0090606A0190A06A0290A06B0690EB
:10A3C000E06B07903046CDE9047703971BF0ACFBB8
:10A3D0000544606A0090A06A0190E06A0290A06B58
:10A3E000D4F834C00490E06BCDF80CC0CDE9050C76
:10A3F000206A079030461BF097FB0544E06A009006
:10A40000206B0190606B0290206A0690A06A079012
:10A410003046CDE9047703971BF0AAFC236B009329
:10A42000636B0193A36B0293E36B0393636A0693DD
:10A43000E36A07932D1A082330461BF099FC636BDF
:10A440000093A36B0193E36B0293236A0393636A04
:10A450000493A36ACDE90537236B07932D1A0823CC
:10A4600030461BF085FCA36B0093E36BCDE901370D
:10A47000636A0393A36A0493E36A0593636B079388
:10A480002D1A082330461BF073FC2D1A10D40D4CE6
:10A4900035B90822314620461BF043FC01280FD075
:10A4A00008232246314630461BF062FC2D1AEFE7A6
:10A4B000044A0823314630461BF036FB2D18F8D4E9
:10A4C00009B0F0BDBCC104000449431E0F3013F8AD
:10A4D000012F8A5C1A708342F9D170478BDC04002B
:10A4E000F0B5264E07460C460FCE8DB001AD0FC518
:10A4F0000FCE0FC596E8070085E807003846002F05
:10A5000038D0002C38D0381F2146024610344B7802
:10A510000D781B0443EA0563CD782B438D78043115
:10A5200043EA05238C4242F8043FF0D1144C042145
:10A530008A07036916D1C3F30742A55C1A0EA25C11
:10A5400042EA0562C3F30725DBB2655DE35C42EADC
:10A55000054242EA032221F0030330336B4453F8EF
:10A560002C3C534050F8042F013153402C290361F7
:10A57000DED101200DB0F0BD2046FBE734BE040063
:10A580008BDC040030BFFFF7FDBF00BF114B124A48
:10A590002DE9F041D518DFF84C80013DB5FBF3F50E
:10A5A0005D430E4B08EB0304013CB4FBF3F403FBE7
:10A5B00004540E1B07460A49304621F0CFF97019A2
:10A5C00042460021083E21F0D7F97E6704F10800D9
:10A5D000BDE8F08101000000000000000400000060
:10A5E00020BE040008000000044B99689869884266
:10A5F00003D003494FF080520A607047F4400020B6
:10A6000004ED00E0134B9A6A12F0007F9A6A14BFBF
:10A610001E201D2012F0807F9A6A18BF1F2012F49E
:10A62000002F9A6A18BF212012F4802F9A6A18BF4F
:10A63000222012F4003F9A6A18BF232012F4803FB0
:10A640009A6A6FEA02426FEA12429A6218BF2420A5
:10A65000704700BF00ED00E010B5194B0246986A44
:10A660009C6A10F4805F14BF1720162014F4006F4A
:10A670009C6A18BF1820A40509D5986B986A000435
:10A6800004D51AB19A6A22F400429A6219200C4B3E
:10A690009A6A12F4806F9A6A18BF1A20D2050CD4F5
:10A6A0009B6A13F4005F18BF1C20054A936A43F4A9
:10A6B0007F43936200230B7010BD1B20F5E700BFA2
:10A6C00000ED00E010B51C4B0246986A9C6A10F041
:10A6D000100F14BF1120102014F0080F9C6A18BF2F
:10A6E0001220A40709D5586B986A000604D51AB140
:10A6F0009A6A22F080029A6213200F4B9A6A12F033
:10A70000010F9A6A18BF142012F0200F9A6A18BF1E
:10A710001520D40658BF9B6A074B9A6A920642BF1F
:10A720005A6A22F400525A629A6A42F0FF029A620E
:10A7300000230B7010BD00BF00ED00E070B5444B6E
:10A740005B689CB00646C3F30803002585F31188B7
:10A75000BFF36F8F02F07F40B0F17F4F11D102F055
:10A760000C0008280DD010074CBF0E460125002212
:10A77000033B8DF80720032B05D8DFE803F01E5CB0
:10A7800060592E46F3E700249DF807309BB96822F4
:10A79000314602A821F0E2F8099B002D53D0C3F303
:10A7A000080222B96FEA53236FEA4323099302A9EF
:10A7B00020461CF004FA1CB070BD254BDA6A9107E4
:10A7C000E1D4DA6A002ADEDBDA6A5200DBD55A69A4
:10A7D000B16942F480725A61BFF34F8FBFF36F8F3C
:10A7E0005A6931F8021C22F480725A61BFF34F8F0C
:10A7F000BFF36F8F4DF60272914209D09A6AD2B2BE
:10A8000042B10DF107010120FFF75CFF0446BBE7F1
:10A810003468B9E79A6A12F47F4F05D00DF1070149
:10A820000120FFF719FFF1E79B6AB3F5803FAAD338
:10A83000FFF7E8FEEAE70DF107010020E4E70DF17C
:10A8400007010020EDE723F4FF7323F00103ADE7D8
:10A8500000ED00E0024A536943F010035361704772
:10A8600000ED00E0EFF30880EFF3098101B57246D7
:10A87000FFF764FF01BD00BF044800232021C21878
:10A880000133302B82F80013F9D1704700E100E06A
:10A89000FEF7C2F9202080F3118808484FF40061C8
:10A8A000401880F30988EFF314800221084380F3F5
:10A8B0001488BFF36F8F00F0D5F80000305F0020E0
:10A8C000084B9B6883420BD1EFF3058343B1064BE2
:10A8D0005A6842F080525A605A6A22F400425A6220
:10A8E00019F06EB9F440002000ED00E0094A0A4971
:10A8F00093680968D967094998674B6843F08053A2
:10A900004B60002383F31188BFF36F8F9368D86F78
:10A91000704700BFF440002028DA040000ED00E09A
:10A9200021498A6882F8C1E04FF030001044EFF30B
:10A93000098C80E8F01F1EF0100F03D102F1800097
:10A9400080EC108A202080F31288BFF36F8F174F9E
:10A950004FF000668A698A603E604FF074041419F3
:10A960002068134C206092F9C1E0906F0023936738
:10A9700080F311881EF0100F03D00023E1EE103A8F
:10A9800003E002F1800090EC108AEFF3148323F0CF
:10A99000040383F31488BFF36F8F02F1300090E853
:10A9A000F01F8CF309887047F440002004ED00E0AC
:10A9B000C41E00201EF0040F0CBFEFF30880EFF35D
:10A9C0000980816911F8021C0229FFD001B51CF031
:10A9D000F8F801BD40B2002807DB044A4109012311
:10A9E00000F01F00834042F82130704700E100E092
:10A9F00040B200280CDB4309064900F01F00203359
:10AA00000122824041F82320BFF34F8FBFF36F8FA5
:10AA1000704700BF00E100E0054B420900F01F0055
:10AA200053F82220012303FA00F01040704700BFC2
:10AA300000E100E040B20028A8BF00F1604001F151
:10AA40000101B8BF064B4FEA4111ACBF00F56140B0
:10AA500000F00F00C9B2B4BF195480F8001370475A
:10AA600014ED00E0144A08B5144B22F07F029A60FE
:10AA7000BFF34F8FBFF36F8FD3F8882022F470029B
:10AA8000C3F88820D3F8882042F4A002C3F88820B5
:10AA90004FF04042C3F83422BFF34F8FBFF36F8FA4
:10AAA0000023E1EE103A18F08DF819F0FFF8FFF7E7
:10AAB000E3FE18F0D5F800BF0060020000ED00E0F2
:10AAC00042F8203C009B42F81C3C019B42F8183C99
:10AAD0000A49029B42F8143C4FF0807342F8043C50
:10AAE00021F00101002342F8081C203A83674FF44B
:10AAF0007D430265C0F8C030704700BF99890200ED
:10AB0000114B9B6883421BD1EFF30580C0B94FF016
:10AB10002002EFF3118182F31288BFF36F8F1A7B4B
:10AB200022F002021A73EFF3148323F0040383F379
:10AB30001488BFF36F8F81F31188BFF36F8F704755
:10AB40006FF01500704700BFF44000200023E1EED5
:10AB5000103AEFF3148323F0040383F31488BFF354
:10AB60006F8FBFF36F8F094B9860094B406F186070
:10AB7000104681F30988002163B681F31188BFF381
:10AB80006F8F00220023FDF707FF00BFF440002075
:10AB9000C41E0020014910220A60704710ED00E039
:10ABA00072B6404080F31188BFF36F8FBFF34F8FB1
:10ABB00030BF62B6BFF36F8F704700BF72B64940B7
:10ABC00081F31188BFF34F8F20BF80F3118862B6E5
:10ABD000704700BF01B5EFF30580A0F110004FEA08
:10ABE000C0000449014409C99847BDE80140024931
:10ABF00008470000DCBB0400E9A50200024B034A41
:10AC00000348012100F030B80000042000000020BB
:10AC100068C20400084AC2F898000B6823F01F03BA
:10AC2000034343F01003C2F89C308B6843F00103E8
:10AC3000C2F8A030704700BF00ED00E0044B0522D1
:10AC4000C3F89420BFF34F8FBFF36F8F704700BFDF
:10AC500000ED00E0BFF35F8F024B0022C3F89420A9
:10AC6000704700BF00ED00E010B5034C01232278CF
:10AC70001BF0C6FF207010BDC7410020F0B5454D48
:10AC80002C68082C85B000F28280FFF7E3FF0020DB
:10AC90000C2684420DD1404D404F2C706846FEF783
:10ACA00021FA00240646A6420AD1FFF7C7FF00207A
:10ACB0001CE0696806FB0011FFF7ACFF0130E8E714
:10ACC000009800EB04114FEA041CCB683B40B3F53D
:10ACD000000F4AD00CD8B3F5001F30D0B3F5800F69
:10ACE00038D0B3F5801F12D06FF0150005B0F0BD5D
:10ACF000B3F1807F42D0B3F1007FF5D150F80C3032
:10AD000088684A681BF06CFF40F4802009E050F826
:10AD10000C3088684A681BF063FF40F0885040F4AC
:10AD20003020039028780728CDE90123DCD801A939
:10AD3000FFF770FF2B7801332B700134B3E750F825
:10AD40000C3088684A681BF04BFF40F0885040F494
:10AD50000020E6E750F80C3088684A681BF040FF96
:10AD600040F0007040F40030DBE750F80C308868A9
:10AD70004A681BF035FF40F08270D2E750F80C3083
:10AD800088684A681BF02CFF40F08870C9E74FF0D4
:10AD9000FF30ABE774C20400C74100200000F0FFA1
:10ADA00008B5044819F08AFE404080F311884FF03E
:10ADB000020002DF8BDD040008B50649064821F0D9
:10ADC0000701C1F1005202F580221AF012F80020AA
:10ADD00008BD00BF1B7D0020C81E0020044A0123BF
:10ADE000C2F840354FF080420020C2F878357047F5
:10ADF00000E001404FF08043C0B2C3F81C05BFF330
:10AE00004F8F0549054BCA6802F4E0621343CB60DB
:10AE1000BFF34F8F00BFFDE700ED00E00400FA052F
:10AE200020B1034B800143F001031847704700BF76
:10AE3000B0BE040008B504481FF018FE00280CBF7F
:10AE40006FF01200002008BD00BB0400F8B5594E99
:10AE5000BFF35B8F3468BFF35B8F14F0010450D0F5
:10AE6000554F564C564D57483A4621461AF0B5FDB7
:10AE7000E0B320222946204620F032FD0028F2D0FF
:10AE800000274FF0FF324FF0FF33012000F01EFB90
:10AE900000F10C050221044628461FF018F83E2355
:10AEA000037042234370012128461FF010F8082345
:10AEB0000370412128461FF00AF8054600F8017B7F
:10AEC000B7B14022002120F057FDBFF35B8F56E859
:10AED000003F23F0010346E80032002AF7D1BFF318
:10AEE0005B8F2046BDE8F84000F038BF1F27C8E759
:10AEF00034491BF01FFF203105F121001BF01AFF20
:10AF0000E3E7BFF35B8F3368BFF35B8F9B0750D5DD
:10AF100029492C481BF01EFC002811DBBFF35B8F76
:10AF2000264933682648BFF35B8F13F0040F01F105
:10AF30002002214B18BF014610461AF09BFD044623
:10AF40004FF0FF324FF0FF33012000F0BFFA00F165
:10AF50000C070221054638461EF0B9FF3E23037058
:10AF600022234370012138461EF0B1FF09230370EC
:10AF7000212138461EF0ABFF034601309CB91F2249
:10AF80001A70FF21202220F0F7FCBFF35B8F56E8F8
:10AF9000003F23F0020346E80032002AF7D1BFF356
:10AFA0005B8F28469EE7002206491A701BF0C2FEFE
:10AFB000EBE7F8BDD41E002094C20400C841002075
:10AFC000D2DD0400E841002070B5214CBFF35B8F57
:10AFD0002368BFF35B8FDA0706460D4601D50C20C8
:10AFE00070BD012931D8BFF35B8F54E8003F43F0B7
:10AFF000020244E800210029F7D1BFF35B8F9B07D1
:10B00000EDD4144831461BF095FE134806F120019B
:10B010001BF090FEBFF35B8F75B154E8003F43F027
:10B02000040344E80032002AF7D1BFF35B8F0B48DA
:10B0300000F00AFA0020D3E754E8003F23F00403AD
:10B0400044E80032002AF0D0F6E71220C8E700BF3B
:10B05000D41E0020E8410020084200208803002080
:10B0600070B5067E044676B9C3681D8842F2260292
:10B07000954245D00FD842F2010295424FD042F29C
:10B0800025039D4213D02A4BD3F85C3120465B69DF
:10B09000BDE87040184742F25E039D42F3D10321A0
:10B0A0000C301EF033FFE06890F840102EE00321D2
:10B0B0000C301EF02BFF204613F00AFEBFF35B8F0F
:10B0C0001C4B1A68BFF35B8F920707D50C263146DD
:10B0D00042F225001BF00AFE002070BDBFF35B8F1B
:10B0E00053E8002F42F0010143E800100028F7D197
:10B0F000BFF35B8FD307E9D40F4800F0A5F9E6E76B
:10B1000003210C301EF002FFE0683146FFF75CFFC0
:10B110000646204613F0DCFD31462846DAE7DA78A9
:10B1200002F07F02DA701A7922F001021A71AAE79E
:10B1300000000020D41E0020880300202DE9F341E8
:10B140001B4DBFF35B8F98462B68BFF35B8F174691
:10B15000DA0704462AD520B96FF0010002B0BDE835
:10B16000F08101A91AF016FB12490246204620F090
:10B17000C7FB0028F0D1BFF35B8F2B68BFF35B8F59
:10B18000C3F3C0061B0711D4A5F1D404072221463E
:10B190004046B847062895BF45F8D46C0723C4F845
:10B1A0000360B0FBF3F094BFE671E0710020D5E7D7
:10B1B000D4000020E6DB04002DE9F04188B09C7942
:10B1C000DDF838805D791E79DF7893F802C093F856
:10B1D00001E01B78B8F1000F0ED0CDE90638CDE9BB
:10B1E00004CE1346CDE90267CDE90045084A19F0BF
:10B1F00001F808B0BDE8F081CDE905E3CDE9037CB5
:10B200001346CDE90156034A009418F0F3FFF0E726
:10B21000F2DD040016DE040070B504468CB01E4654
:10B220001546A2B129B10A4602A8042119F0CBFBA8
:10B2300002A900912B462246242103A8FFF7BCFF58
:10B24000109A314603A8FEF767FE0CB070BD0346A6
:10B25000044A242103A818F0CDFF0028F0DA6FF08B
:10B260001500F2E737DE040007B5064B0648DA7929
:10B27000C2EBC202009200221146FFF7CDFF03B0DD
:10B280005DF804FB00000020E6DB040030B5044656
:10B290008DB0154692B129B10A4602A8042119F0D1
:10B2A00092FB02A900912B462246242103A8FFF716
:10B2B00083FF03A81AF046FA0DB030BD0346054AD5
:10B2C000242103A818F096FF0028F2DA6FF0150089
:10B2D000F2E700BF37DE040007B5009313460A46C5
:10B2E00001460348FFF798FF03B05DF804FB00BF79
:10B2F00006E004000A4601460148FFF7C7BF00BF49
:10B3000006E0040007B5009313460A4601460348C9
:10B31000FFF782FF03B05DF804FB00BF00E004000C
:10B3200007B5009313460A4601460348FFF774FF2A
:10B3300003B05DF804FB00BFF1DF040007B5002295
:10B340000346009103481146FFF766FF03B05DF81E
:10B3500004FB00BFF8DF040008B5024818F092F8BB
:10B36000002008BD9803002070B51A4CBFF35B8F16
:10B370002368BFF35B8F13F0010F25461DD014F82F
:10B38000CD3CA4F1D406D3B1BFF35B8F2368BFF3E8
:10B390005B8F5A0701D400F077FDBFF35B8F55E850
:10B3A000003F23F4803245E800210029F7D1BFF3A4
:10B3B0005B8FDB0301D5FFF7CFFF002009E001F031
:10B3C00013F830B9F379002BDED101F051F80028E1
:10B3D000DAD070BDD400002007B5009313460A46AA
:10B3E00001460348FFF718FF03B05DF804FB00BFF8
:10B3F00045E004000A4601460148FFF747BF00BF89
:10B4000045E0040030B50A4D0A4B85B000242846BB
:10B41000029303941FF088FD02AB0093284606496F
:10B420000A234FF4A36218F033F8204605B030BD6C
:10B43000801000203DDE040018480020014601482D
:10B4400018F05EB880100020014601481FF05BBD77
:10B45000801000200378012B30B513D0022B27D0A9
:10B460007BB9194B0A4603F1100453F8045B42F808
:10B47000045BA342F9D11B78137043884B731B0AFA
:10B480008B7330BD104B0A4603F1100453F8045B74
:10B4900042F8045BA342F9D11B78137043684B73E5
:10B4A000C3F307221B0CCB731B0A8A730B74E8E7E8
:10B4B00000F1100350F8042B41F8042B9842F9D105
:10B4C00003780B70DDE700BF46DE040038B50546A3
:10B4D00005481EF0BDFC044620B100210C301EF0D2
:10B4E000F2FC2576204638BDC80D002070B5024616
:10B4F0000D48BFF35B8F0B46002150E8004F40E83A
:10B500000015002DF9D1BFF35B8F24B9BDE8704061
:10B510000120FFF7DBBF012304F10C002376218219
:10B520001EF0D1FC204670BD4001002070B50446DD
:10B530000F2C0D461046194605D80D2C0DD9BDE827
:10B540007040FFF7D3BF132C07D10C481EF080FCCE
:10B55000044638B90024204670BD02460B4645B16A
:10B560000748F3E700210C301EF0ADFC01232376E1
:10B57000F1E7BDE870400120FFF7A8BFF40D0020FF
:10B58000440D002038B5C368B3F801401B786BB98F
:10B590000F21204601F03CFE054640B9084B1A88B1
:10B5A00022B96FEA04506FEA1050188038BD0121AB
:10B5B00001F072FD2846BDE838401CF016BB00BF04
:10B5C0003441002010B5084C0146052294F86F0064
:10B5D00001F09CFF38B994F86F000449BDE81040B1
:10B5E000042201F093BF10BD00000020B8DD04006C
:10B5F00010B5012104460C301EF090FC2146034A90
:10B600000078BDE810400A231BF009BDCCC304003C
:10B61000F8B50746907A0E46144613F0ABFA284B5D
:10B6200083424BD1204613F0ADFA264D0C2303FB89
:10B6300000504388BB4241D1234FD7F8400120B18D
:10B6400013F046FB0023C7F84031204613F09AFA66
:10B650000C2707FB005043689BB196B9204613F0B6
:10B6600091FA07FB005001214268D2E90003127AE7
:10B6700003F01F07B9405B09D2B100EB83001BF058
:10B6800035FC204613F07EFA0C2707FB0050836838
:10B69000A3B1204613F076FA78432E54204613F0D7
:10B6A00071FA07FB0055A868BDE8F84017F0E8BD3F
:10B6B000C94300EB83001BF0C9FCE2E7F8BD00BF03
:10B6C0009C0D0020D81E00200000002038B5042169
:10B6D00004460C301EF022FC457801784088224652
:10B6E000FFF796FF25B10348BDE8384017F0C8BD05
:10B6F00038BD00BF2801002038B5032104460C30B6
:10B700001EF00CFCE36805781978B0F801002246B9
:10B71000FFF77EFF25B10348BDE8384017F0B0BD04
:10B7200038BD00BF280100202DE9F0473C4FDFF86D
:10B730000C8107F11409FB6848466FF39433FB60F2
:10B7400001F060FC451C36484FF0FF324FF0FF33EC
:10B75000294618F0A5FC60B13249334840F6E5238C
:10B76000424619F0C8FC404080F311884FF00300B6
:10B7700002DF2B4E15B918F067F9DCE7F368C3F365
:10B780008633042B42D1337B002B42D12748002241
:10B7900000231EF062FB044660B92549224840F6AA
:10B7A0007723424619F0A7FC404080F311884FF000
:10B7B000030002DFDFF888A01E484FF0FF324FF091
:10B7C000FF3317F083FDDAF8400120B113F080FA5F
:10B7D0000023CAF8403120461EF043FBCAF840015E
:10B7E0002046FFF73DFC88B1124817F049FD20467E
:10B7F00013F0C8F9104B0C2202FB00301F214088C7
:10B800002246FFF705FF204613F062FA1436013D89
:10B81000B0E7012BFAD13069383801F02BFFF5E79A
:10B82000A80300208BDE040094DE04004401002005
:10B83000B1DE040028010020D81E002057DE0400DD
:10B840000000002010B5C1E900239DF808300B72FC
:10B850000C4613F097F9034B0C2202FB00335C609B
:10B8600010BD00BFD81E00202DE9F0474FF0FF3279
:10B870004FF0FF3306461748174D0F461EF0E8FA03
:10B88000044600F10C0A00214FF0000850461EF05B
:10B890001AFB84F81880204613F074F94FF00C0955
:10B8A00009FB00504680204613F06CF909FB00505C
:10B8B000C0F80880204613F065F909FB0055032104
:10B8C0005046C5F804801EF002FB068087702046B3
:10B8D000BDE8F0879C0D0020D81E002038B5054635
:10B8E0000C4619B9FFF7C0FF044698B140F635433E
:10B8F0009D4209D12046FFF7B3FB054640B12046E3
:10B9000013F0E6F9284638BD044821461EF0A7FA90
:10B910000025F7E76FF06805F4E700BF4401002059
:10B920002DE9F041074686B015460C4621B9FFF7D0
:10B930009BFF044600284DD00122002168461FF0DD
:10B9400032FA204613F01EF9DFF8A8800C2303FB1F
:10B950000080C0F808D020461EF083FA0146204837
:10B960001EF07DFA4FF4A0220023684617F0AEFCCB
:10B97000064688B14FF4A9731A4A1B491B4819F0AF
:10B98000BAFB1B483246394619F0B5FB404080F3FC
:10B9900011884FF0030002DF204613F0F3F80C2368
:10B9A000584318F800606EB1204613F091F9092E43
:10B9B00013D00D2E0CBF6FF00B006FF0040006B01B
:10B9C000BDE8F08115B12C600020F8E7204613F0A7
:10B9D0007FF9F9E76FF06800F1E76FF06E00EEE7CE
:10B9E0004401002057DE04008BDE040094DE0400D6
:10B9F000B5DE0400D81E0020F7B5144B93F99B3038
:10BA0000002B05460C461DDA14B9204603B0F0BDE4
:10BA1000082C01AA4FF0000142F21800264628BF68
:10BA20000826FFF77DFF0028F0D1019FF968324614
:10BA3000013128461FF092FF384613F049F935448A
:10BA4000A41BE1E76FF08500E0E700BF00000020E5
:10BA50000138C0B202289ABF014B185C0020704721
:10BA60007BDF04002DE9F0417B4BB0F801801988A1
:10BA7000054648F4704291424FF0000688B004BF7A
:10BA80001E80012600F0F8FA2C78BCB13C2C36D18F
:10BA900000F000FE6FF0800110301BF0D7FA00209C
:10BAA000FFF790FD054650B30473002101F0F4FA4E
:10BAB000284608B0BDE8F0411CF097B8EB78012BA0
:10BAC00008BF664B05F10407384608BF93F86F407E
:10BAD0001BF0DDF93946A8B106A81BF0CDF905F138
