:020000022000DC
:10600000B0B9002039E20200B9F104000DE202004B
:106010000DE202000DE202000DE2020000000000AD
:106020000000000000000000000000005DE302002E
:106030000DE2020000000000C9E202000DE20200D1
:106040007DE502009D3004007DE502007DE5020053
:106050007DE502007DE502007DE502007DE50200B0
:106060007DE502007DE502007DE502007DE50200A0
:106070007DE502007DE502007DE502007DE5020090
:106080007DE502007DE502007DE502007DE5020080
:106090007DE502007DE502007DE502007DE5020070
:1060A0007DE502007DE502007DE502007DE5020060
:1060B0007DE502007DE502007DE502007DE5020050
:1060C0007DE502007DE502007DE502007DE5020040
:1060D0007DE502007DE502007DE502007DE5020030
:1060E0007DE502007DE502007DE502007DE5020020
:1060F0007DE502007DE502007DE502007DE5020010
:1061000053B94AB9002908BF00281CBF4FF0FF311E
:106110004FF0FF3000F00CB8ADF1080C6DE904CE83
:1061200000F008F8DDF804E0DDE9022304B0704770
:10613000704700BF2DE9F04786468C460846089E0A
:10614000154674461946002B40F0C2808542B2FACB
:1061500082F245D94AB1C2F1200300FA02FC2EFABC
:1061600003F3954043EA0C0C94404FEA154EA8B255
:10617000BCFBFEF8230C0EFB18CC08FB00F943EA2D
:106180000C43994528D9EB1808F1FF3704D29945FB
:1061900002D9A8F102072B44A3EB0903A4B2B3FB75
:1061A000FEFC0EFB1C330CFB00F044EA0344A0424F
:1061B00014D92C190CF1FF3304D2A04202D9ACF14E
:1061C00002032C44241A43EA07401EB1D4400023A2
:1061D00034607360BDE8F0874746DDE76346F1E76A
:1061E00092BB431B01214FEA154EAFB2B3FBFEFC3D
:1061F000200C0EFB1C330CFB07F840EA03439845C8
:1062000062D9EB180CF1FF3004D2984502D9ACF1F9
:1062100002002B44A3EB0803A4B2B3FBFEFC0EFB6D
:106220001C330CFB07F744EA0344A7424ED92C1950
:106230000CF1FF3304D2A74202D9ACF102032C4483
:10624000E41B43EA0040C0E7C2F1200320FA03F157
:10625000954090402EFA03F303434FEA154EAFB238
:10626000B1FBFEFC0EFB1C10190C0CFB07F841EAFD
:106270000041884504FA02F422D969180CF1FF3074
:1062800004D2884502D9ACF102002944A1EB0801EF
:106290009BB2B1FBFEFC0EFB1C110CFB07F743EAA3
:1062A00001439F420ED9EB180CF1FF3104D29F42FB
:1062B00002D9ACF102012B44DB1B41EA004192E719
:1062C0006046E3E76146F7E76046A3E76346B7E762
:1062D000834206D916B9002108467BE7C6E900E0EB
:1062E000F9E7B3FA83F78FB9834201D3724508D82F
:1062F000BEEB020460EB030301209C461EB90021A3
:1063000068E73846FAE7C6E9004CF8E7C7F1200C21
:10631000BB4022FA0CF41C432EFA0CF120FA0CF3C9
:10632000B84001434FEA14490EFA07F5B3FBF9F8F8
:106330001FFA84FE09FB18300B0C08FB0EFA43EA27
:1063400000439A4502FA07F240D9E31808F1FF30FA
:1063500004D29A4502D9A8F102002344A3EB0A0310
:1063600089B2B3FBF9F809FB183308FB0EFE41EACA
:1063700003418E452CD9611808F1FF3304D28E45B4
:1063800002D9A8F10203214443EA0040A0FB02988D
:10639000A1EB0E014145CE46434602D306D14D4501
:1063A00004D2B9EB020E68EB04030138002EA6D02C
:1063B000B5EB0E0261EB030101FA0CFC22FA07F3C4
:1063C0004CEA0303F940C6E9003198E74046C5E7C7
:1063D0004346D9E710F8012B11F8013B012A28BFE9
:1063E0009A42F7D0D01A7047034611F8012B03F8F0
:1063F000012B002AF9D17047034613F8012B002A1C
:10640000FBD1181A01387047F7B5404DD5F85C310B
:10641000996811F0010124D101AA40F6034009F066
:1064200099F8044600286DD1019CE3681B78ABB94C
:106430000AF032FBBFF35B8FD5F8D430BFF35B8F2C
:1064400005F1D40203F00903BFF35B8F52E8001F8C
:1064500042E800300028F9D1BFF35B8F204620F0DE
:10646000D7F801AA002141F2030009F073F80446AD
:10647000002847D1019B264EDA68D2F80100D2F8F5
:10648000051003C6184620F0C3F8214601AA41F2C0
:10649000010009F05FF80446A0BB0198C3685A7870
:1064A00085F870205A88A5F872201A7985F871202D
:1064B000B3F80720A5F87420B3F80530A5F87630B6
:1064C00020F0A6F8214601AA41F2020009F042F8A4
:1064D0000446B8B9019FFA68531C413218685968DC
:1064E000344603C4083393422646F7D1094828F0BE
:1064F00040FF384620F08CF895F87C305B060BD4D2
:106500006FF01204204603B0F0BD00BF1000002061
:10651000880000209000002001AA002142F2030020
:1065200009F018F804460028ECD1019BB64EDA6851
:10653000D2F80100D2F8051003C6184620F068F81A
:10654000214601AA42F2020009F004F8044600289C
:10655000D8D1019CE368B3F8012091B249B1D97850
:1065600039B1A5F80421DA78114606F128002DF09A
:1065700051FF204620F04CF895F87C6016F020067C
:1065800018D1022140F66D4008F088FF044600282B
:1065900000F0CC8002210C302CF0B5FF01230370F9
:1065A00046702146324640F66D4008F0D3FF04465F
:1065B0000028A7D195F89C301F0712D501AA002109
:1065C00042F21C0008F0C6FF044600289AD1019848
:1065D000C368D3F80120D3F80530C5E9382320F08B
:1065E00017F895F8D8309E0624D50DF102016846BB
:1065F00029F0E0F90446002884D1042142F2240065
:1066000008F04CFF0646002800F0908004210C3072
:106610002CF079FFBDF800300380BDF802304380D4
:106620002246314642F2240008F094FF0446002836
:106630007FF468AF95F8D8305C0610D501AA002128
:1066400042F22A0008F086FF044600287FF45AAF81
:106650000198C3685B7885F820311FF0D9FF0821C5
:1066600042F2010008F01AFF044600285ED008211B
:106670000C302CF048FF95F8D81011F0400F02466E
:1066800040F2022308BF032388074CBF43F02C00CD
:1066900043F00C0095F8D9308F0648BF40F0400019
:1066A00013F0090F95F8A23018BF40F4006003F012
:1066B0000603CE0748BF40F01000062B08BF40F489
:1066C000C070002128F0E7FF2146002242F20100BD
:1066D00008F040FF044600287FF414AF95F87C30A2
:1066E000B5F80411980624D4C9B901AA41F20500ED
:1066F00008F030FF044600287FF404AFB5F80431F9
:10670000019C4BB9E368B3F80120A5F804219A88ED
:106710003E4811462DF07EFE20461FF079FF0821ED
:1067200040F6014008F0BAFE044638B96FF068043C
:10673000E8E60029F3D16FF00404E3E608210C3009
:106740002CF0E1FE95F8D830D907024653BF4FF040
:1067500000512BA1D1E900012D4828F09CFF2146D2
:10676000002240F6014008F0F5FE044600287FF4C0
:10677000C9AE014601AA4FF6014008F0EBFE0446FF
:1067800020BB01981FF044FF214601AA4FF60240AA
:1067900008F0E0FE0446C8B90198C368B3F80130B8
:1067A000A5F8C1301FF034FF95F8C1305B070DD557
:1067B00001AA21464FF6034008F0CCFE30B90198FB
:1067C000C3685B7885F8C0301FF022FF29F06BFBAF
:1067D000044600287FF496AE0BF08AFB044600289E
:1067E0007FF490AEEB79002B3FF48CAE0821094882
:1067F00028F0B7FE09F04AFA84E600BFAFF3008044
:106800009088000200800020E8000020180100208D
:1068100010880002E40000202DE9F843D0E90C358F
:10682000D0F82C805C193034A0450F46164619D894
:106830001D4DA3FB05011AA3D3E90023FFF760FC5C
:106840000346A4EB0800A0FB050123F07F4414A33A
:10685000D3E90023FFF754FC20F07F403C60306018
:10686000BDE8F883DFF840900DA3D3E90023A8FB2F
:106870000901FFF745FC044605F1300008A3D3E900
:106880000023A0FB0901FFF73BFC24F07F4420F02C
:106890007F403C603060BDE8F88300BFAFF300800C
:1068A0008D49FD1A0700000000CA9A3B0000000055
:1068B0009FED0D7B124B134A1348144910B483ED1E
:1068C000007B9FED0B7B82ED007B9FED0B7B104BE4
:1068D0004FF0FF34002281ED007B04601A605DF808
:1068E000044B12F093BB00BFFFFFFFFFFF1F000030
:1068F00000000000000000001F0000000000000079
:1069000078010020403D00208C67002070010020AD
:106910008467002000000000002800F05F812DE95E
:10692000F04FB54C94F86A2012F001058DB040F09C
:10693000A78194F82500FF2300F0030084F8263097
:106940001BF08CFE94F86A00420727D494F82920A3
:1069500094F8353004EB820204EB8303D66AD3F853
:10696000388086B1A448314614F0D4FA33785B06F7
:1069700005D506210FF07AFA002800F083819E48A1
:10698000414614F0C7FA337813F00E0F40F0B78089
:10699000236A93B10C200DB0BDE8F08F2A4604F1B4
:1069A0006B01C0F3C0001BF0F5FFFF2884F8260040
:1069B000CCD028461BF098FEC8E711F051FC814668
:1069C000002800F0718111F057FC8246002800F089
:1069D000688114F0CDFE0546002800F06781D0F8EC
:1069E00088004FF6FF732B8505F11C0B002800F083
:1069F0004F8105F1780105F17C020FF043FAB5F8FB
:106A000076307E4A23F4EF6323F0070343F4887360
:106A100043F00103A5F876301346D2F80120C5F8FB
:106A20009B21C5F8A12113F8012B9B88A5F89F3164
:106A3000A5F8A53195F89A3102F0010262F300033E
:106A400062F3410385F89A3195F8393003F03F033A
:106A500063F07F0385F8393095F88E3023F0070313
:106A600085F88E3095F83C3023F00703002785F831
:106A70003C304FF4C023C5F888312846C5E9127769
:106A8000C5F88870A5F88C706F86C5F82E7085F8EB
:106A90003B702F65A5F88E71A5F8847117F036FC50
:106AA00085F85071C5F8549115F020F995F8943196
:106AB00060F3020385F8943115F01EF995F89431CE
:106AC00060F3C50385F8943195F8803167F341038D
:106AD00085F880310121284615F06EFD05F1D400BE
:106AE00017F09CF9C4E9189AC4F820B0C5E90577F5
:106AF0002F70ED611DF080F8002840F0C58094F8FB
:106B000024300121C3F342030DF12B008DF82B300B
:106B10000FF056FB0246002862D098F8011030466C
:106B200013F0BAFF31233649A360364BB4F86870CE
:106B3000A0FB01010025C01841F107012CA3D3E9F6
:106B40000023C4E9055525706560E560FFF7D8FAB4
:106B5000206110F069FE00F109083FB9357805F0B1
:106B60000F05A5F10105B5FA85F56D0994F8240026
:106B7000236965F3000010F0010584F824004BD070
:106B8000214A0992002010600225204A204F0493D8
:106B90000BAE019305920321CDE902000694434612
:106BA0000090089607972A460B9510F0DBFC3146BB
:106BB00011F01CFCA0B9174905914AF2D833009393
:106BC000CDE90300CDE901000797089606944346F6
:106BD000012203210B9510F091FC43E013F0A8BEB5
:106BE000236A002B3FF4D6AE13F060FED2E600BF5E
:106BF0008D49FD1A0700000044680020E98A05005D
:106C000000CA9A3B8C49FD1A3868002015AB030076
:106C1000B579030029A603002B4A2C48049303F2FC
:106C200047130694029591211360A7FB000301FB13
:106C30000731274B0793274B05934FF6FF730992B4
:106C4000022703930BAE1EA3D3E900230B970896EC
:106C5000FFF756FA4346CDE900503A46284603214D
:106C600010F080FC314611F0C1FB0028B8D194F837
:106C70006A3043F0010384F86A3014F06DFB60B1B0
:106C8000002088E6122086E613F010FE032082E63C
:106C900005F18000C5F88800ABE601201BF0C0FCC0
:106CA000EEE7484611F0E2FA072074E6504611F08C
:106CB000E9FA484611F0DAFAF6E700BFAFF30080D0
:106CC0008D49FD1A0700000038680020002AE7847B
:106CD000B579030015AB030070B590F824308AB085
:106CE000C3F342030D46044601210DF1230016466D
:106CF0008DF823300FF064FA71780246284613F0BD
:106D0000CBFE1F491F4AA0FB0131981841F1070132
:106D100019A3D3E90023FFF7F3F923699842054645
:106D200021D21B1A00220192174A0293174BA21A72
:106D3000A3FB02320221920900230A4409AE099101
:106D400013490591CDE903330321D2B2069600938E
:106D5000184610F067FC314611F048FB38B9256140
:106D600000200AB070BDFBD9C21A0023DBE70C205B
:106D70000AB070BDAFF300808D49FD1A0700000016
:106D800000CA9A3B8C49FD1A44680020898888888B
:106D9000B57903000000000038B5194C9DF810E0EB
:106DA00094F848C01CF0010523D163F3420C400164
:106DB00094F83230A1874FEACE0E0EF0180E00F094
:106DC000200040EA0E0023F0380303430D4884F806
:106DD00032309121A2FB000384F848C001FB02314C
:106DE00005A3D3E90023FFF78BF9C4E91000284677
:106DF00038BD0C25284638BD8D49FD1A0700000016
:106E0000483D0020002AE78410B504469DF808009C
:106E100022844FEA411CC000A17D00F018000CF054
:106E2000200C4CEA000C0C4821F038014CEA010C13
:106E3000A3FB0002912184F816C001FB032104A3E7
:106E4000D3E90023FFF75CF9606210BDAFF3008067
:106E50008D49FD1A07000000002AE78400000000A9
:106E60002DE9F047044600F1350190F8480094F808
:106E700032305B4DDFF88081C0F3400060F3861351
:106E80008CB084F8323010F021FD94F83220A38FBA
:106E90005448E46102F07902002784F832209121FD
:106EA000A3FB0002C4E90577277001FB03214AA375
:106EB000D3E90023FFF724F9651B626C4A4B676036
:106EC000AD08A3FB053502F10903984298BF3A4685
:106ED000C5F3470522644FF031028CBF19460146C5
:106EE000A26005EB4502E760216148F822100646E2
:106EF00010F09AFC236A00F109074FEA450A002BBB
:106F00004AD00DF12C09AA4408EB8A030993CDF865
:106F100020900694A38F33484FF00008A3FB000293
:106F2000CDF80C80912101FB0321236904932F4BA1
:106F300007932F4B05934FF0020A27A3D3E90023B1
:106F4000CDF82CA0FFF7DCF8104619464FF47A7202
:106F50000023FFF7D5F80435EDB2CDE90160032138
:106F60003B462A46CDF80080404610F0FBFA4946E1
:106F700011F03CFA60B994F8483043F0010384F80A
:106F8000483013F09DFF08B300200CB0BDE8F08737
:106F90000C200CB0BDE8F0870DF12C09CDE90A33C7
:106FA00021694B460AAA032001F096F90028AAD1CC
:106FB0000B99104808A3D3E90023A1FB0001FFF7B8
:106FC0009FF80A9B20F07F471F449CE750461BF028
:106FD00027FBD9E7AFF300808D49FD1A07000000B9
:106FE000483D0020002AE784BD86F21AB5790300E7
:106FF00049B1030000CA9A3BD46800200000000099
:107000002DE9F04F05468BB08B46012002219A46B0
:1070100014461FF095F800220221814601200EF04F
:1070200081FF3B494FF4D47228460EF00BFF461DFA
:10703000F6B2384B009532460121002010F00AFBD1
:1070400010F0FD0F0CD0344A3449354840F62F0378
:1070500026F018FB404080F311884FF0030002DF58
:10706000304BA4FB0348204627A3D3E90023414625
:10707000FFF746F82C4B20F07F47A7FB0331072290
:10708000E01A02FB071168EB01014FF47A7200234A
:10709000FFF736F8CDE90170CDF800B008950695F8
:1070A000296995F9394021480491214931EA24019F
:1070B00028BF014605911F4C07944FF6FE710391BE
:1070C000534632460121002010F018FA10F0FD0F4F
:1070D0000CD0114A1149124840F6440326F0D2FA66
:1070E000404080F311884FF0030002DFB9F1000F38
:1070F00002D10BB0BDE8F08F0122022110460BB087
:10710000BDE8F04F0EF00EBF8D49FD1A07000000DC
:10711000983D002019B70300A87405006C750500A0
:10712000446F050000CA9A3B8D49FD1A911704006F
:1071300039190400C1B603002DE9F043C469228D5A
:107140004FF6FF739A428DB000F0888005462046C6
:1071500017F0D4FB95F82830012B00F00F81022B9B
:1071600000F00281002B00F0E18094F85071002FB4
:1071700040F0FD80E68DB4F83080002E71D1AA8CED
:1071800008F101060023CDE90A33B6B2002A70D017
:1071900094F93930002BC0F248810023A4F88A31D9
:1071A00095F82630D90740F1EF800023A4F88E31FE
:1071B0000DF127023146204617F0E4F8743000F054
:1071C0004681B4F888312BB1B34240F20D819B1B4C
:1071D000A4F88831B4F884312BB1B34240F2FB807B
:1071E0009B1BA4F88431258E17B9A84500F0EA80CE
:1071F0000135ADB294F8D13013F001065AD1DDE972
:107200000A130A46002B40F0ED80002900F0DC80D4
:107210001E461846228DE4690694CDE903570532CF
:10722000A74D0290CDE90016D2B2012100200595AC
:1072300010F0F8F910F0FD0F10D011F001F98442B0
:107240000CD0A04AA049A14840F2155326F01AFAE2
:10725000404080F311884FF0030002DF0DB0BDE81D
:10726000F083AA8C46440023CDE90A33B6B2002A43
:107270008ED195F82630DA0797D4B4F88A31002BEE
:1072800000F08280B34240F2FA809B1BA4F88A315E
:10729000B4F88E31002B8BD09E4280F0DE809B1B99
:1072A0009BB20022062BA4F88E31228600F2AC801D
:1072B00001277DE794F939206FF30003002A84F851
:1072C000D13077DB94F87600C0F3C00100F00700FE
:1072D0001CF0F8FAB4F86E20B4F86C30134403F2E2
:1072E000D51303447A4A7B480721E3FB002110466B
:1072F00071A3D3E90023FEF703FFDDE90A1320F0B1
:107300007F4220692261904235BF161A801A002000
:1073100000260A46002B7FF47DAF56EA010C7FF46D
:1073200079AF002850D019461E4673E794F88E3086
:1073300003F01803182B7FF418AFA18DB4F8862141
:107340008B1D9A42C4BF931F5B1AB4F88211CCBF45
:107350009BB21346994200F08C80A4F88231A4F8C5
:107360008431A4F8882100E73D2784F8507139461C
:1073700020460DB0BDE8F04314F0DCBD0023A4F8B6
:107380008831A4F88431F0E6B4F88E31002B83D133
:10739000628DB4F88C3140F2E24101FB02F242F21C
:1073A000107101FB0323013BB3FBF2F39BB2A4F882
:1073B0008E316FE794F87700012100F007001CF090
:1073C00083FA87E73D4615E7002D4BD0002611468E
:1073D000304633461EE70023A4F88431204617F0D8
:1073E00071F800E7304615E710F092FF01460028DB
:1073F0003BD00023A4F88831238DC3801B23037165
:10740000006810F04FFFE5E694F939309342BFF67B
:10741000CFAEB8F1000F7FF44BAFD4F878315A08F3
:10742000DB0743D4C4F87821C2E628460AAA0BA990
:1074300004F1D409FFF7F0F9484616F031FD18B30E
:10744000484616F02DFD18B300232386A5E69DF8C7
:107450002710204614F06EFD00E70821204614F0A6
:1074600069FDFBE6002FB1D1F8E60123A4F88831CD
:10747000B0E6B4F8881100297FF477AE6FE73E21BB
:10748000204614F057FDE9E6FF2014F00BFDD7E786
:107490000246D4E91E010EF00DFD0028D4D194F867
:1074A0003C30580744BFA38D238676E642F0004265
:1074B000C4F87821FCE600BF8D49FD1A07000000E2
:1074C00081B60300A8740500B8750500446F050077
:1074D0008C49FD1A00CA9A3B2DE9F04F87B0CDE9DF
:1074E0000432BDF8442003780292BDF84820BDF86C
:1074F0004080BDF84C50468EB0F82E90B0F814B1D4
:10750000019104460392002B00F0CB80013EB6B2FD
:10751000A368D4F80C71721B92B2002B009209DAA6
:10752000E168626823F0004391422CBF7F18BF18C6
:10753000A360FF1A009A638D13FB02F39BB2B3FBA7
:10754000F8F218FB02F080B283421FFA82FA80F050
:107550009780C01A40F2E2425D4902FB00F0A0FBB6
:10756000010159A3D3E90023FEF7CAFD20F07F40B3
:107570000744D94494F839304D44AD1B554440F28A
:10758000E246DB09E58506FB08F500F08E80226CFB
:107590000099A36CDFF838B102FB1133A3641CF02F
:1075A0007DFB814694F87401C0F342001CF078FB27
:1075B000059B814406FB03F305FB09F9236509F5E7
:1075C0007429444B09F23F29A3FB09394FEA994337
:1075D00003FB0AF02364A5EB0309A36C6A080344C8
:1075E000963A934228BF1346C4E911230023C4F8F6
:1075F0007C31A0FB0B0134A3D3E90023FEF780FD0F
:10760000049B3F1A3448A0FB0330800A06FB00F0BD
:107610002DA3D3E90023A0FB0B01FEF771FD20F0A1
:107620007F46029BA385039BA4F88C312946204604
:10763000A4F82A8016F0E2FE284BA18D2B44881D69
:10764000B3FBF5F39AB29042A4F8862102D2521A03
:10765000063A92B2019BA4F8822113B10023A4F848
:107660008E313B464A4631462046FFF7C9FC94F826
:10767000803143F0010384F8803107B0BDE8F08F1A
:1076800008FB1231124840F2E24389B203FB01F1D8
:10769000A1FB00010CA3D3E90023FEF731FD3F1A43
:1076A00067E74E445E44B6B232E7049B0848A3FB4A
:1076B000000105A3D3E90023FEF722FD20F07F4659
:1076C000A9460136ADE700BF8D49FD1A070000004D
:1076D00000CA9A3B83DE1B435917B7D17FC3C90148
:1076E0002DE9F04F04460B68077F1668D3F800A019
:1076F000638CD0F81E0095B015464A7CADF84C302E
:10770000FF2AC7F3801389460D9212908DF83F30FF
:1077100072D198461A4612AB93E803000DF1400B64
:107720001090ADF84410F8090AF1710127680A9128
:107730005B460C900B9714F0E5FA0A99002843D1A8
:1077400096F89A310C9A0A9068F3410362F30003A9
:1077500086F89A311098BBF80430C6F8A101A6F853
:10776000A531DAF87130C6F89B318B88A6F89F31C5
:10777000E38D94F83010A9722B81D4F82A306B6015
:10778000D4F83A30AB6105F1180094F83E3003713B
:1077900005210EF015FD6B7F00F03F0060F305033F
:1077A0006B7794F83F30C3F30401A977A18EE98188
:1077B000012803F01F0389B206D91B3303F01F030E
:1077C0000B2B01D80A9A59BB0022CAF8142095F84D
:1077D00020300B9862F3000385F82030E56801261D
:1077E0002146267110F054FD28682E71294610F0AC
:1077F00059FD15B0BDE8F08F0DF1400B10460DF1AD
:107800003F015A461AF082FC9DF83F80277F08F11D
:1078100002085FFA88F88DF83F8008F0010282E7DD
:10782000D9F800305A60E38E2B82EB8940F2E248AF
:1078300008FB03F71146638E0A93304616F0F2FDFB
:1078400094F83F3096F874215B0963F3430286F89D
:1078500074211CF023FA0C9096F87401C0F34200D6
:107860001CF01EFA0C9B184407FB00F0BA4B00F505
:10787000742000F23F20A3FB00307B08800C963B75
:107880006862AB6294F8313008FB03F3AB63238F7B
:10789000A6F88C313946304616F0B0FDAF4BB04AF1
:1078A000C6F890213B44B3FBF7F39AB2A6F88621C1
:1078B000298A881D824204DDC1F57F41FA310A44DC
:1078C00092B2A6F882216B68C6F87831234613F885
:1078D0001C2FC2F34018DA0700F104814FF48073C3
:1078E000A3839AF826001BF06BF904F12B03002800
:1078F00000F0EE80626AC4F82B20228D9A800D9BE6
:10790000FF2B00F0E980BDF84C301298A4F8293024
:10791000C4F82500BBF80430A4F8233010989DF873
:107920003F30C4F81F00A377EB8963862B8AA386B8
:10793000B6F88C31E38696F87431C3F3420384F8C9
:107940003830304613F020FFA881E08021460B98A4
:10795000D9F8044010F09CFCAB89E3801C23D4F8D8
:1079600000B02371B8F1000F40F0D18084F81C8082
:107970002146584610F096FC95F85B00B5F850800B
:10798000B5F85240012100F007001BF09DFF444470
:1079900004F2D514DFF8D4810444834671480721EA
:1079A000E4FB080131230024B360746068A3D3E9C9
:1079B0000023F460FEF7A4FB20F07F4030616D6A85
:1079C0000A9A7D1BD9F80C7040F2E24303FB027760
:1079D0000221224601200EF0A5FA504613F056FA75
:1079E00007F2B2470246A7EB0B07A7FB08011746B1
:1079F00057A3D3E90023FEF783FBCDF804A0D9F801
:107A000008305949009120F07F48BA1C3A3BD2B265
:107A10002046434401210FF05FFE012800F08280E0
:107A20009AF82430DB076AD4304613F0ADFE4F4B92
:107A3000A5FB035A044646A3D3E900232846514632
:107A4000FEF75EFBD9F80830494A0792A3F13A09DC
:107A5000484B069620F07F47A7FB0331E81A464BB8
:107A6000059340F2D113089333694FF0000BCDE931
:107A700003B34FF0070303FB07116AEB01014FF457
:107A80007A720023FEF73CFB0534E4B2CDE90170C5
:107A9000CDF800804B462246012158460FF02EFDBE
:107AA00010F0FD0F0CD0354A354936484FF4E973D4
:107AB00025F0E8FD404080F311884FF0030002DF1D
:107AC0000122022110460EF02DFA15B0BDE8F08F0C
:107AD000C4F82B00988012E70022C4F82520A4F8EF
:107AE000292017E7254A28492648F82325F0CAFD0A
:107AF000404080F311884FF0030002DFEEE60023E0
:107B000001220093184611460FF0A4FD8CE76B7F0D
:107B100043F040036B77281D1AF0F0F84FF001088E
:107B2000E88323E710F08CFC82453FF479AF134AD9
:107B30001649144840F2792325F0A4FD404080F313
:107B400011884FF0030002DF6AE700BFAFF3008047
:107B50008D49FD1A0700000083DE1B437FC3C90166
:107B6000404B4C008C49FD1A5517040000CA9A3B43
:107B7000251704008D49FD1A91170400587A050055
:107B80006C750500446F050008720500B47A0500A5
:107B90002DE9F04F8DB01F46BDF860300793CDE959
:107BA0000501BDF868309DF85C90BDF864B00493A1
:107BB0000020164613F0DEFB002800F0658109F076
:107BC0000108044640460FF071FE0390B8F1000F23
:107BD0006DD1169B03993A46404614F093F800285D
:107BE00040F06381236A04F11C020892002B65D0E7
:107BF000D4F820A0DAF8005007F0010B9AF85A00E8
:107C0000C0F3C00100F007001BF05CFEBAF8521090
:107C1000BAF8502000F2D5130A441344CC48CD4A98
:107C20000721E3FB00211046C7A3D3E90023FEF799
:107C300067FA20F07F40286130461AF031FD94F851
:107C400033306FF3410384F83330FF2384F834304A
:107C5000002E00F01D81A9F10203012B40F22981C1
:107C600094F84810089869F3420184F8481094F891
:107C700033106BF30001DDE9052384F83310169906
:107C80000968616216998988218504992186009680
:107C90000021FFF7B9F860641BF0AEFF002840F048
:107CA00013812046FFF7DCF80DB0BDE8F08F062108
:107CB0000EF0DCF800288CD11220F5E710F0D0FA95
:107CC0000990002800F0738113F052FD054600284A
:107CD00000F06A8120300EF087FA05F11C0A0028B6
:107CE00040F01D81032105F124001BF09FFC079B40
:107CF000D5F888006B854FF6FF73A5F82CB02B855F
:107D0000002800F0198105F17C0205F178010EF0E0
:107D1000B9F8B5F8763023F4EF6323F0070343F4A2
:107D2000887343F00103A5F8763095F88E304FF054
:107D3000000B23F0070385F88E300121C5F888B0C9
:107D4000A5F88CB0284614F037FCC5F82EB0A5F87D
:107D500032B005F1340019F07BFF95F8393060F34B
:107D60000503012185F839300DF12F001BF05EFC71
:107D7000049B9DF82F20A5F88C31774B85F83BB0FC
:107D8000A3FB0213DB0803EB4303A2EB830295F88A
:107D90003930A98DA5F88EB103F03F0385F839304D
:107DA00095F83C30A5F884B1053223F0030385F83B
:107DB0003A20079A85F83C3040F2E24B674B0BFBC8
:107DC00002FB4FF4C0225B44C5F88821881DB3FB39
:107DD000FBF39AB28242A5F8862102DD063A521AD6
:107DE00092B2A5F88221284616F090FA5946284604
:107DF00016F004FB099BC5F85431002385F8503177
:107E000013F074FF95F8942160F3020285F8942131
:107E100013F072FF95F8942160F3C50285F8942160
:107E200095F88021002363F3410285F8802105F154
:107E3000D40015F0F3FF95F89A21169907F0010B7D
:107E40006BF3410285F89A213122AA600023169A29
:107E50006B60EB601268C5F8A12195F89A218988BA
:107E6000A5F8A51169F30002039985F89A210A681B
:107E7000C5F89B218A88A5F89F21C4F820A0C5E9F0
:107E800005332B70ED61B9E60C200DB0BDE8F08F25
:107E90001BF046F800283FF4DEAE1699384632460D
:107EA0001AF078FD84F83400D5E60B200DB0BDE85B
:107EB000F08F00201AF018FC94F8333043F00203DE
:107EC000C14684F83330CBE6256AEB6E63B1244AB1
:107ED0002449254840F21D4325F0D4FB404080F35F
:107EE00011884FF0030002DF05F1600105F15C002D
:107EF0000DF0CCFF064600283AD02F68EE66D7F882
:107F00005451002D42D0284610F0B0F9384613F0F5
:107F100035FC0023032023620DB0BDE8F08F104A2A
:107F200012491148C12325F0ADFB404080F3118870
:107F30004FF0030002DFD5E605F18000C5F88800A8
:107F4000E1E600BFAFF300808D49FD1A0700000095
:107F500000CA9A3B8C49FD1AABAAAAAA7FC3C901E1
:107F6000E47A05009C730500446F0500A06F0500CE
:107F7000104A1149114840F21F4325F083FB40404D
:107F800080F311884FF0030002DFB6E7094A0A497F
:107F90000A4840F2264325F075FB404080F31188E3
:107FA0004FF0030002DFAEE7099810F05FF90720F9
:107FB0007AE600BFE47A0500F8740500446F050016
:107FC0002DE9F04F04468DB090F81C80238D406A57
:107FD000ADF82C30E307C8F3C0170E461546C8F3BA
:107FE00040180A9000F10D810023A383B37C707CBC
:107FF00013F001031CBFD4F81E30C4F82B3004F179
:108000002B0214BF638CC4F82B30FF28938004F13B
:10801000250904F11F0240F0E5800023BDF82C1073
:108020000A98C4F82530A9F80430A777C4F81F00CF
:1080300091803368D3F80090EB8963862B8AA386FE
:10804000B9F83030E3861BF027FE84F838002F683B
:10805000384613F099FB0021A881E080384616F0DD
:10806000E1F9D6F804A02068214610F011F9AB8997
:10807000AAF806301C23DAF800408AF80430B8F178
:10808000000F40F0CC808AF81C805146204610F04A
:1080900009F9BB687A6895F85A00B5F80E80F5685A
:1080A000674C934238BF1346C0F3C00103F1090A7D
:1080B00000F0070040F2E24303FB08F81BF002FC6B
:1080C000002202212D1A01200DF02CFF484613F04A
:1080D00027F9A5FB044558A3D3E900238346294685
:1080E0002046FEF70DF8CDF80490B368554900918D
:1080F00020F07F490BF10402A3EB0A03D2B24B44F8
:10810000012100200FF0E8FA10F0FD0F0CD04E4ACC
:108110004E494F4840F23D3325F0B4FA404080F3D9
:1081200011884FF0030002DF4FF0000B5B46032283
:108130000121CDF800B058460FF08CFA384613F004
:1081400023FBB36806463E48A3EB0A0AA8FB0001DE
:1081500039A3D3E90023FDF7D3FF19463D4B08931C
:108160003D4B069340F26D33079709933B69804678
:10817000CDE904B3104600234FF47A72FDF7C0FF37
:10818000364B0722A9FB0331CDE9028002FB09111E
:10819000E01A65EB01014FF47A720023FDF7B0FF9E
:1081A0000536F6B2CDE900905346324601215846D5
:1081B0000FF0C0F910F0FD0F0CD0234A23492448DA
:1081C00040F26E3325F05EFA404080F311884FF0A4
:1081D000030002DF0122022110460DB0BDE8F04F7E
:1081E0000DF0A0BE04F11E0119F090FFA37FBDF8B1
:1081F0002C200A98C4F825000233A377A9F804209C
:1082000017E7114A1649124840F2BD2325F03AFA01
:10821000404080F311884FF0030002DFE4E66B7FFB
:1082200043F040036B77281D19F068FD4FF00108FB
:10823000E88328E7AFF300808D49FD1A07000000AE
:1082400000CA9A3B05190400E47A05006C75050024
:10825000446F050009190400391904008D49FD1AFD
:1082600008720500000000000538C3B2052B0CD8C9
:1082700070B580B20D4613F08FFA044618B190F92C
:108280003930002B03DA002070BD0020704790F8D1
:1082900076000F4EC0F3C00100F007001BF012FB88
:1082A0000C4A00F2B5500721E0FB0621104606A358
:1082B000D3E90023FDF724FF20F07F40286020460B
:1082C00070BD00BFAFF300808D49FD1A07000000AC
:1082D00000CA9A3B8C49FD1A2DE9F04F93B0FF2458
:1082E0000B930B1D0A930023CDE90E33054616466A
:1082F0008DF837409B464FF0040A1F469946984632
:1083000010AB0693564B0593564B03930FAB01935B
:108310000EAB00200093022310930490029033468A
:108320000DF1370229460FF01BFA022815D0109BD9
:10833000CBB9FF2C26D03368BB4223D0BAF1000F53
:1083400040D00AF1FF3AFF245FFA8AFA8DF83740ED
:10835000D6E7294600200FF04FFA109B022BF8D0E9
:10836000109B002BE5D0404A404941484FF4F77339
:1083700025F088F9404080F311884FF0030002DFB8
:10838000FF2CD8D19DF83700FF2829D011A9FFF77D
:108390006BFF0028B4D0FF2C0E9F119B0AD04146E2
:1083A000384609930FF042FA0A9B03EB0902904208
:1083B000099B17D8B8469DF837403768DDF83CB0C0
:1083C00099469DE72B49284A29484FF4FB7325F02D
:1083D00059F9404080F311884FF0030002DFB0E705
:1083E000FF2C34D024480721A9FB000301FB0931ED
:1083F00019A3D3E90023FDF783FE044600B14034FE
:108400001E4AABF57423A3F51073934216D81A488D
:108410000721A8FB000301FB08310FA3D3E90023C8
:10842000FDF76EFE164BA3FB0B2304EB93440B9B53
:10843000044400201C6013B0BDE8F08F0BF1E87B12
:108440000BF5D43B08F1FF380BF5A57BDFE76FF0A8
:10845000090013B0BDE8F08F00CA9A3B000000008D
:10846000151C0400191C0400307B0500747B0500FA
:10847000446F05007C7B05008D49FD1ABFBDF07F70
:1084800083DE1B43000000002DE9F043C668476807
:1084900073683D491A68D0F80090A7F57423A3F5D6
:1084A00010738B4283B0804607D907F1E87707F550
:1084B000D43709F1FF3907F5A57773681169DD89AC
:1084C000CDF8049006F1100301AA0220FFF704FF83
:1084D00000284ED10199A1EB09031B0237D40846AD
:1084E00049460FF0A3F9034628480721A3FB0002E1
:1084F00001FB032122A3D3E90023FDF701FE346928
:108500000444002C346109DB40F2E24305FB03F331
:10851000A3422FD2E41AA342FCD33461D8F800302E
:108520001A48A3EB0903A3FB0002072101FB032167
:1085300013A3D3E90023FDF7E3FD154BA3FB073796
:10854000A0EB97402044306103B0BDE8F08348467B
:108550000FF06CF903460D480721A3FB000201FB55
:10856000032107A3D3E90023FDF7CAFD3469241AC8
:10857000C7E73469002CD1D103B0BDE8F08300BF58
:1085800000CA9A3B00000000BFBDF07F8D49FD1A74
:1085900083DE1B430000000010B5334C3349002339
:1085A00004F1FF3C14F83320072A02EB820E05D8B1
:1085B00011F83E206FF3451201F83E201CF83320DD
:1085C0006FF300020CF833200133082BEAD1284A5C
:1085D000284C002313700A7863F300020A7091F8A4
:1085E000282063F3000281F8282091F8502063F3DB
:1085F000000281F8502091F8782063F3000281F89E
:10860000782091F8A02063F3000281F8A02091F86F
:10861000C82063F3000281F8C82091F8F02063F3CA
:10862000000281F8F02091F8182163F3000281F82C
:108630001821114A9FED0A7B1370104B83ED007BCC
:108640000F4B236028B1BDE810400E490E482BF0B7
:10865000A8BFBDE810400C482BF0B1BFAFF30080BD
:10866000FFFFFFFFFFFFFFFF15760020D4740020FF
:10867000F6880020E4730020F5880020B847002029
:10868000A0BB0D00D5280400884700200000000092
:108690002DE9F04F8FB00DF137010446DFF8E0A06F
:1086A000DFF8E0800DF136000FF07AFE9DF83630ED
:1086B0009DF837B00B930FF0B7F8DAF80060A6FB1F
:1086C000085629A3D3E900230027814631462846CE
:1086D000FDF716FDCDE90777069420F07F44DAF820
:1086E0000400234B0593A0FB08011FA3D3E900233B
:1086F000FDF706FD1F4B20F07F40A4FB033107224E
:1087000002FB0411CDE90370E81A66EB01014FF496
:108710007A720023FDF7F4FC0097CDE901404B4647
:108720000B985A4603210EF0E9FE10F0FD0404D028
:108730006FF08B000FB0BDE8F08F0F480F4A002399
:1087400022F0E0FA20B9DAF80C000FB0BDE8F08FA3
:108750009DF837209DF836000094234603210EF043
:1087600079FF6FF07300E5E78D49FD1A07000000FF
:10877000253004008D49FD1A88760020447B0B00CB
:10878000A076002000CA9A3B38B50F4D04460FF082
:108790004BF8A9680FF04AF8696803460B48B3FB29
:1087A000F4F4A1FB00011C4405A3D3E90023FDF769
:1087B000A7FC20F07F40844294BF0020012038BDF8
:1087C0008D49FD1A07000000A076002000CA9A3BE0
:1087D000F0B5C468636883B00546002B63D11CF014
:1087E000F5FF00201DF018F8002108461DF006F8DE
:1087F0000022252108201DF045F8454B019301A8D2
:108800001DF028F8434940F25B601DF0D3F8237A4D
:10881000C3F3420262F30613204623721BF05EFC90
:108820001AF07EFB58BB637A9B071FD127682E681E
:1088300038461AF0E5FF06446A6806F1090101208E
:108840001DF012FA1DF0FEFA204612F02BFB811CDF
:108850003246C9B238461AF0E1FF054670BB2046E1
:108860001AF068FF88B9002003B0F0BD012019F0AC
:10887000CBFE4178821C00781DF096F9D6E7607A2D
:1088800010F0030018BF0120F1E7234A23492448D0
:1088900040F22C4324F0F6FE404080F311884FF064
:1088A000030002DFDFE793F820309A0797D01D48D6
:1088B00021461CF049FF1DF037F8D4E7164A1A4943
:1088C000174840F2144324F0DDFE184B0721A5FBA6
:1088D000030301FB05310CA3D3E90023FDF710FCD2
:1088E00013490246134824F0CDFE404080F311881E
:1088F0004FF0030002DF104821461CF025FF1DF059
:1089000013F86FF08B00AFE700CA9A3B000000003D
:10891000D6BE898E55555500287F0500B0700500DC
:10892000446F0500A5390400C46F05008D49FD1A88
:10893000D87F0500AC7F0500AD3C040000000000BE
:108940002DE9F041C46894F91630002B8CB0C0F2C8
:10895000FF80636805460E46002B40F0EE80A37D45
:108960006FF30003A3751CF031FF00201CF054FFCF
:10897000002108461CF042FF0022252108201CF09F
:1089800081FF01200FF00EFE0746002800F0C7808F
:1089900007F11C001CF0A0FF874B0B930BA81CF0E9
:1089A00059FF864940F25B601DF004F8A07DC0F3DA
:1089B000410025301AF044FF814821461CF0C4FED6
:1089C000A37D9B0603D46368002B00F0A58096204E
:1089D0001DF03EF900231A46194618461DF050F8BE
:1089E0001AF09EFA002838D1A37D13F0180F59D140
:1089F000D4F800802F6840461AF002FF07446A68E6
:108A000007F1090100201DF02FF91DF01BFA1DF0E0
:108A1000A7F8204612F092FC011DC9B240463A4622
:108A20001AF0FCFE8046002840F0998016B9636A6F
:108A3000002B4ED1636843B1624B0122022100201A
:108A40009D600DF0A5FA002835D120461AF072FE7F
:108A5000D0B900200CB0BDE8F081A07DC0F3C0000B
:108A600019F0D2FD07460DF12B001AF0D1F87978F4
:108A70008046BA1C38781DF097F89DF82B0000222C
:108A800041461DF0AFFAB3E74F4A5049504840F213
:108A90000B2324F0F7FD404080F311884FF00300D2
:108AA00002DFD6E7012019F0AFFD4178821C007883
:108AB0001DF07AF89CE7444A4649454840F20623AF
:108AC00024F0E0FD404080F311884FF0030002DF06
:108AD000BBE7414A0792414A059240F2F3120093E4
:108AE0000892CDE90366CDE9016606943B4631461E
:108AF00003220EF003FD10F0FD0F9BD0324A3849DF
:108B000033484FF4FA7324F0BDFD404080F31188E0
:108B10004FF0030002DF8DE71DF012F860E72A4AEC
:108B200030492B484FF4C57324F0ACFD404080F32E
:108B300011884FF0030002DF2AE7636893F82030C2
:108B4000D90705D4636893F820309A077FF507AFFB
:108B5000254821461CF0F8FD1CF0E6FE79E71A4A8C
:108B600022491B4840F2E51324F08CFD204B0721DD
:108B7000A8FB030301FB08310DA3D3E90023FDF794
:108B8000BFFA1C4902461C4824F07CFD404080F39B
:108B900011884FF0030002DF184821461CF0D4FD75
:108BA0001CF0C2FE6FF08B0054E700BFAFF30080F3
:108BB00000CA9A3B00000000D6BE898E555555006C
:108BC000A18C0200F4160020E47F0500B0700500BF
:108BD000446F0500B870050025480400C54804002E
:108BE000E8720500747F0500A5390400C46F050014
:108BF0008D49FD1A30800500AC7F05000147040057
:108C000038B504461BF02CFDA37DA27DC3F34103C0
:108C1000013303F00303032B08BF002363F3420275
:108C200014BF03F125002520A2751AF009FE636820
:108C30000BB123694BB90EF0F7FDC11C00201DF0EC
:108C400087F8BDE838401DF0FDB81DF0AFF80546C7
:108C50000EF0EAFDC11C00201DF07AF81DF0F2F8BC
:108C60001DF0A4F829460EF0E1FD0B4A034607214A
:108C7000A0FB020201FB032105A3D3E90023FDF7BA
:108C80003FFA23691B1A236138BD00BFAFF3008090
:108C900000CA9A3B000000008D49FD1A0000000048
:108CA0002DE9F0478AB004461CF070FEC0B250B9FE
:108CB0001AF01EFEC44821461CF046FD0AB0BDE86D
:108CC000F0471CF031BE1CF081FE05461CF0A0FFF1
:108CD00007461CF0A7FF81461DF0DEF906461DF091
:108CE000BDF982461CF056FFEDB280461CF036FFFF
:108CF0001AF0FEFD002DDDD001200FF053FC0546DB
:108D0000002800F04D8117F0FF07F6B240F0E38035
:108D1000002E40F0DA804FF0FF093A464B463146CC
:108D200020461BF0C3FE0028C4D02A7F61680023C0
:108D30008DF823305FFA88F702F00F03002900F066
:108D4000EC80616891F82010880700F1E680072B1D
:108D5000B0D0A17D090740F14381002B40F0C480D1
:108D60006B7F063B1F2BA5D804200FF01BFC0028AF
:108D7000A0D01DF06FF8636A074643B9238C40F218
:108D8000712202FB03F3B0FBF3F203FB120723682B
:108D90001A698E4B0721A2FB030301FB023188A352
:108DA000D3E90023FDF7ACF96FF44A7C00EB0C0328
:108DB000BB42FFF47FAF1CF0C3FE4846636819F066
:108DC0000DFFE37D9907804640F1E581002800F022
:108DD000E281824601271CF007FECDE9027A09AB49
:108DE000049305F11E0301932B7FC3F38013014607
:108DF000074600930022012320461BF071FE3846EF
:108E00001CF070FD1CF0B8FD002840F0CA817048CD
:108E100021461CF099FC626892F8203043F001036F
:108E200082F82030A37D43F08003A3750FF0DCFBB4
:108E3000172202714FF6FF72C28095F81CC082465D
:108E40003B46CCF3401C00F11C0207F1200E1D68CC
:108E500058689968DF68D7601033734515605060B3
:108E6000916002F11002F2D11B6813609AF81C3075
:108E7000CAF808406CF345138AF81C301CF096FFC2
:108E8000002ECAF81000099BCAF8143008BF4FF032
:108E9000FF098AF81990E37D13F0020303D0B8F1BB
:108EA000000318BF01239AF81A2063F300028AF81E
:108EB0001A200FF099FBCAF80C00DAF800005146AE
:108EC0000AB0BDE8F0470FF0BDBB5FFA8AF019F0B9
:108ED00013FF814621E7A07D5FFA89F1C0F3C0004E
:108EE00019F0A0FE814618E7012B40F089806A7FC7
:108EF0000C2A7FF4DFAE2A7FCDF8009019460023BC
:108F00000193D20905F1240320461BF023FD00281C
:108F10007FF42AAF2B7F03F00F03002B70D16B7F00
:108F2000052B7FF6C7AE252B3FF6C4AEA27D02F01F
:108F30002102202A09D16268002A00F0C180052B95
:108F40007FF6B8AE252B3FF6B5AE63682BB12B7F0D
:108F500003F00F03072B7FF4ADAE03209DF82380B1
:108F60000FF020FB054600283FF4A4AE0FF03CFBB9
:108F70004FF6FF73EB8005232B71002F3CD17F2030
:108F8000AB7E2876002E08BF4FF0FF0968F341033F
:108F9000286885F81990AB7629460FF053FB89E6CF
:108FA0000C4A0D490D4840F2C72324F06BFB4040AA
:108FB00080F311884FF0030002DFA4E6AFF30080D6
:108FC00000CA9A3B00000000194704008D49FD1AB1
:108FD00009490400E47F0500747F0500446F050023
:108FE000B9F1FF0F8DF82490C2F380184BD0227E88
:108FF00091453FF4B2AE90E71CF0BCFDC0B2BFE7B4
:10900000062B8CD04521D94011F0010139D1012B1B
:1090100010D16B7F0C2B7FF44DAE2A7FCDF80090E2
:109020000DF123030193D20905F1240320461BF01F
:1090300091FC08BB2B7F03F00F03042B7FF43AAEA7
:109040006B7F063B1F2B3FF635AEA37DDB077FF51D
:1090500031AE1CF0C9FC2B7F0278C3F38013B3EB55
:10906000D21F7FF427AE0830062205F11E012BF037
:1090700072FF00287FF41EAE6B7F002B7FF465AF7C
:1090800018E66B7F5BE705F11E0A09AA51464046C8
:1090900019F0E8FE00283FF43DAFE37D03F0010343
:1090A00043457FF437AF5146062204F108002BF008
:1090B00052FF00287FF42EAF2B7F03F00F034CE606
:1090C000962007921CF0C4FD079A10461CF090FCF5
:1090D00003200FF067FA804600283FF4EBAD0FF055
:1090E00083FA4FF6FF73A8F80630052388F804309A
:1090F000002F64D17F23002E88F8183014BF4B4610
:10910000FF2388F8193098F81A30D8F800006FF368
:10911000410388F81A3041460FF094FA1CF064FCC1
:1091200006460322337862F3030333702B7F3278D1
:10913000C3F3801363F3C7120C2332704846737075
:1091400019F04CFDE27D92073DD500283BD03178E7
:10915000324641F0400102F8021B0168C6F80210D5
:1091600083889380D5F81E30B3606B8CB381304612
:109170001CF0B8FB1CF000FC002835D11CF062FE8E
:10918000A37D204843F001032146A3750AB0BDE842
:10919000F0471CF0D9BAA77D04F1190AC7F380176C
:1091A00019E6194A19491A4840F2A44324F06AFA08
:1091B000404080F311884FF0030002DF27E61CF0E7
:1091C000D9FCC3B297E7A37D3278C3F3801363F36E
:1091D0008612334603F8022BD4F81920C6F8022071
:1091E000B4F81D209A80BDE7074A084908484FF4A3
:1091F000A56324F047FA404080F311884FF0030044
:1092000002DFBBE72D470400E47F05007C7F0500FB
:10921000446F0500000000002DE9F041C468A289F8
:109220004FF6FF739A4282B000F0C78005461BF0EC
:109230005BFD2B89628AE08A1A4492B21044637FF4
:10924000A28280B2411CE1825E064FF00001618281
:1092500004F1180100F18C8003F03F000B46A17F60
:10926000009004F11F0018F001FD0646D4E90B231D
:109270001344D4E90D0200210244E1626163A16A52
:10928000A26394F872208B4228BF0B4612F00402AE
:10929000236377D01CF09AFA00201CF0BDFA201D41
:1092A0001CF0D8FA2389A17A40F25B6043EA0141BD
:1092B0001CF080FB30461AF0C3FA214658481CF0D7
:1092C00043FA96201CF0C4FC94F85A2094F85B00F2
:1092D000C2F3C003002102F0070200F007001CF0F7
:1092E000CFFB20461BF062FD27682E6838461AF037
:1092F00087FA06446A6806F1090100201CF0B4FCF4
:1093000080461CF073FD00201CF08AFD236B94F84E
:109310005B0003F13002A36B00F00700012103EBB7
:1093200042051CF0EDFA4544054494F85B0000F05A
:109330000700022824D004280CBF4FF4BC73282354
:1093400001211D441CF0DEFA28441CF041FDA189D6
:1093500005313246C9B238461AF060FA054698BB64
:1093600020461AF0E7F9D0B9002002B0BDE8F0813C
:109370000A4603F03F03E18B18F0C4FC064675E78C
:109380001823DDE7D4E917010CF094FD002881D102
:1093900094F8723043F0040384F872307AE7214A7B
:1093A0002149224840F2551324F06CF9404080F3E3
:1093B00011884FF0030002DFD6E71D4821461CF05C
:1093C000C3F91CF0B1FACFE7164A1A49174840F220
:1093D0004B1324F057F9184B0721A5FB030301FB9E
:1093E00005310DA3D3E90023FCF78AFE1349024699
:1093F000134824F047F9404080F311884FF00300F0
:1094000002DF104821461CF09FF91CF08DFA6FF026
:109410008B00AAE7AFF3008000CA9A3B000000006F
:1094200005500400B0800500B0700500446F0500D1
:10943000A5390400C46F05008D49FD1A048105009B
:10944000AC7F050081390400F0B5C468A2894FF6ED
:10945000FF739A4285B000F08B8005461BF044FCF8
:109460002B89628AE08A1A4492B21044637FA282F6
:1094700080B2411CE1825E064FF00001618204F17E
:1094800018015FD403F03F000B46A17F009004F168
:109490001F0018F0EBFB0646204603A91BF054FD05
:1094A000039B94F872101A7861F3C3021A70039A3E
:1094B00094F872301178C3F3400363F382011170A2
:1094C0001CF084F900201CF0A7F9201D1CF0C2F943
:1094D0002389A17A40F25B6043EA01411CF06AFAF9
:1094E00030461AF0ADF9039920461BF001FD2146E4
:1094F00037481CF029F996201CF0AAFB94F85B0071
:1095000000F007001CF074FA27682E6838461AF03D
:1095100077F906446A6806F1090101201CF0A4FBF2
:109520001CF090FCA18905313246C9B238461AF0C8
:1095300075F9054618BB20461AF0FCF850B9002012
:1095400005B0F0BD0A4603F03F03E18B18F0DAFBEB
:109550000646A1E71F4A2049204840F2031324F0A1
:1095600091F8404080F311884FF0030002DFE6E7F6
:109570001B4821461CF0E8F81CF0D6F9DFE7154A35
:1095800018491648F92324F07DF8174B0721A5FB4D
:10959000030301FB05310CA3D3E90023FCF7B0FD65
:1095A00012490246124824F06DF8404080F31188B9
:1095B0004FF0030002DF0F4821461CF0C5F81CF0F5
:1095C000B3F96FF08B00BBE700CA9A3B00000000C4
:1095D000394E040010810500B0700500446F05008D
:1095E000A5390400C46F05008D49FD1A608105008E
:1095F000AC7F0500813904002DE9F0472DED028B89
:109600009FED498B4A4E84B004464FF02003EFF3A0
:10961000118783F31288BFF36F8FD4F8C8508DB9C8
:10962000022104F1E0002AF005FF002843D10023C5
:109630008DED008B029304F1D00239463D4822F0B3
:109640003FF8E2E7D4F8CC202B68C4F8C830954244
:1096500008BFC4F8CC30D4F8E03043F00203C4F8BB
:10966000E030EB6823F0040343F00103EB606B6828
:1096700087F31188BFF36F8F284698474FF0200378
:10968000EFF3118983F31288BFF36F8FEB689907AB
:1096900023F0010219D4EA60D4F8E03023F0020389
:1096A000C4F8E03089F31188BFF36F8FDB05ACD4C9
:1096B00021F0E6FEA9E704F1D805002201212846A1
:1096C0002BF0BEF80028F8D1B1E7306823F003038F
:1096D000EB600028E0D00027D0F80080BA460028D0
:1096E000DAD04268954201460BD1016897B9726899
:1096F0003160824200D1716040F808AB21F0DCFAA1
:109700003946B8F1000F0BD0D8F8002040460F467C
:109710009046E4E739607268824208BF7760EBE701
:109720004246F3E7AFF30080FFFFFFFFFFFFFFFFBD
:10973000B08600200C890020014821F0BFBB00BF8B
:109740008002002007B52BF0B8F84FF47A72A0FB26
:10975000020302FB0131C00B074A40EA414010609E
:1097600000234FF400420548CDE9002322F086F99A
:10977000002003B05DF804FB604B0020101A0020AD
:10978000014B187800F0D8B9B8870020044B1A783C
:10979000824202D01870FFF7F3BF0020704700BF6D
:1097A000B887002008B52BF088F84FF47A72A0FB38
:1097B000020302FB0131C00B044A40EA4140106041
:1097C000BDE808400020FFF7E1BF00BF604B00206C
:1097D00008B52BF072F84FF47A72A0FB020302FB7B
:1097E0000131084AC30B126843EA41439B1A47F20E
:1097F0003052934204DDBDE808400120FFF7C6BFA8
:1098000008BD00BF604B0020014B1878704700BFB7
:10981000B8870020F8B5044610B900252846F8BDE1
:109820000378002BF9D00F4E0F4FBE420FD30D4ED1
:10983000BE42F2D230682AF050FC30B13568214681
:109840002868FCF7C7FD0028E8D00436F0E7306848
:109850002AF043FC18B135682B68A342DED00436E9
:10986000E3E700BFF8AD050054AE050030B5184C75
:109870008DB00022002303A9204621F0D9F808B1B9
:109880000DB030BDDDE90415039800F055F800284F
:10989000EFDBFF238DF81830B5FA85F35B090790ED
:1098A0008DF820302BF009F84FF47A72A0FB0203F8
:1098B00002FB0131C00B40EA4140C90B8DE80300B7
:1098C00006ABCDE90A010FCB00F050F9D1E700BF9C
:1098D000D81B00201FB583F00103CDE901120393CB
:1098E0000022002301A9044821F04CF8034821F08C
:1098F000E5FA05B05DF804FBD81B0020644B00209E
:1099000010B5044678B1094909482AF006FEA36853
:1099100008491B6820469847A3689B680BB12046FE
:109920009847002010BD6FF01500FBE76D9802000E
:10993000644B0020D59802000A2303FB001126295E
:1099400005D8044B53F8210008B1013870476FF077
:10995000150070471C580500F8B50F4D0F4E761BCB
:1099600007460C4605EBC105C6F3C706A64201DC57
:1099700000200CE02A683B689A4209D13C716B6870
:1099800038461B68984718B1431E012BF0D9F8BD23
:1099900001340835EAE700BF388F0500988F0500CD
:1099A00070B40D4B0D4CE41A0022C4F3C70494426A
:1099B00003DC6FF0150070BC70471E680568AE428E
:1099C00002F1010206D15D688D4203D170BCD1B2B3
:1099D000FFF7C2BF0833EAE7388F0500988F05000C
:1099E00000B58BB0064B074A2821684622F01EF9C5
:1099F00005490122684603F063FF0BB05DF804FBE4
:109A00004C84050056840500B98700202DE9F041FB
:109A1000466807693179F38804463068D0F810E069
:109A2000D0F80880DEF80050DA0754BF43F4B013D2
:109A300083F4D0134FF0010C23F480120CFA01FCD4
:109A4000DB074CBF45EA0C0525EA0C05CEF80050B3
:109A5000D8F80030984760BB04F086F8164803F049
:109A6000BFFF054610BB154915482AF09AFD154859
:109A700003F060FF7B785BB901233B700022002379
:109A80000F4821F083FAA3681B680BB12046984762
:109A9000318959B140F2E7304FF47A72002300EB7C
:109AA000C1300021FCF72CFB21F06CFD2846BDE8FD
:109AB000F0816FF00405F9E790020020E1990200BF
:109AC000601E00206984050008B54FF4F0120023E1
:109AD000024821F08FFA00EAE07008BD601E002005
:109AE000F7B50C461646114901AA1F4624F025F980
:109AF000B0B1019BA3B9012C15D10D4D22462946C9
:109B00003846B047002806DB2B780A486C7023B132
:109B100022F030FC002003B0F0BD22F03DFCF9E75C
:109B20006FF00100F7E76FF01500F4E74C840500D3
:109B3000B9870020705405001FB50023CDE902331A
:109B4000044B8DF80C0001A8019322F0F8FB05B03E
:109B50005DF804FBD05805000268034B9A420CBF25
:109B600008300020704700BFD058050084B030B5E1
:109B700089B00CAC84E80F00002301930CAD084BB6
:109B800000930FCD02AC0FC495E8030084E80300F6
:109B9000684622F0D4FB09B0BDE8304004B07047FD
:109BA000D45805000268034B9A420CBF08300020CD
:109BB000704700BFD458050010B58AB06C4684E8E1
:109BC0000F0000230593064B049394E80F000AACA2
:109BD00004E90F0004A822F0B2FB0AB010BD00BFD8
:109BE000DC5805000268034B9A420CBF0830002085
:109BF000704700BFDC5805001FB50023CDE90233D4
:109C0000044B8DF80C0001A8019322F098FB05B0DD
:109C10005DF804FBE058050082B038B504A981E87E
:109C20000C000546114820F069FC0446A0B16B68A1
:109C3000012B0CD0022B05D0A3B9BDE8384002B0EF
:109C400022F0DDBB22F0E2FB00282046F5DCBDE877
:109C5000384002B022F0CCBB6FF00400BDE83840C1
:109C600002B070476FF08500F8E700BF4C84050034
:109C700082B010B502A981E80C0004460B4820F020
:109C80003DFC78B16368022B04D00020BDE8104091
:109C900002B0704722F0BAFB0028CCBF00200120A0
:109CA0006060F2E76FF00400F0E700BF4C8405004D
:109CB0000D4A52F82030013342F820300B4A01237C
:109CC000117883400B430A490978DBB2137023EA09
:109CD00001030849084A097850780B43181A537051
:109CE00018BF0120704700BF884B0020BE870020AE
:109CF000BC870020BD8700209E19002010B5114AA6
:109D000052F82030002B19DD013B42F820300E4A7A
:109D10002BB913780121814023EA010313700B480A
:109D20000B4B047810780B4A5978127820EA04001B
:109D300010435870401A18BF012010BD6FF0150075
:109D4000FBE700BF884B0020BE870020BC870020B7
:109D50009E190020BD870020044A01231278834009
:109D6000D8B213401B1A584258417047BE87002092
:109D700010B5084B084A1870084B51781C78084BEE
:109D80001B7823EA040318435070401A18BF0120BF
:109D900010BD00BFBD8700209E190020BC87002099
:109DA000BE870020074B00221A70074B074A19781C
:109DB000074B50781B7823EA0103181A537018BF19
:109DC00001207047BD870020BC8700209E1900201D
:109DD000BE870020A0F1E003072B03D82030C0B2DB
:109DE000FFF766BF064B062213F8011F19B1013AAF
:109DF000FAD10020704718700028F8D0F9E700BFAA
:109E0000A0190020A0F1E003072B10B405D82030E2
:109E10005DF8044BC0B2FFF771BF0023064A194634
:109E200012F8014F0133A04208BF1170062BF7D181
:109E300000205DF8044B7047A0190020A0F1E0035A
:109E4000072B03D82030C0B2FFF786BF064A002395
:109E500012F8011F884204D00133062BF8D10020EC
:109E600070470120704700BFA0190020024B00225C
:109E70001A605A60704700BF9F19002010B508494A
:109E8000002301EB4302B2F8014024B10133062B59
:109E9000F7D1002010BDA2F801000028F6D0F8E7A5
:109EA0009119002030B50023074C194604EB4302FA
:109EB0000133B2F80150854204BF51709170062BF6
:109EC000F4D1002030BD00BF91190020024B0022C8
:109ED0001A605A609A60704792190020074A00235E
:109EE00002EB4301B1F80110814204D00133062B8B
:109EF000F6D1002070470120704700BF9119002063
:109F0000042810D8094A52F82030013342F8203092
:109F1000074A0123117883400B43DBB21370054AD3
:109F20000020537070476FF015007047744B00208D
:109F3000BB8700208C190020042814D80B4A52F843
:109F40002030002B0FDD013B42F82030084A2BB9AE
:109F500013780121814023EA01031370054B127825
:109F60005A70002070476FF015007047744B002046
:109F7000BB8700208C190020014B00221A6070471B
:109F80008D190020004870479E1900200048704736
:109F900091190020004870478C19002010B5094B1A
:109FA00000211A461C68844205D15C7C1CB95823E8
:109FB00003FB012010BD01310A2903F15803F1D13F
:109FC0000020F7E7901E00202DE9F0410B4E33787A
:109FD00083B10B4CDFF82C8000254FF0FF37204673
:109FE000414601352AF0DDFA0A2D44F8207C04F1BF
:109FF0005804F4D100203070BDE8F081A71900208A
:10A00000B01E00206DC7040082B02DE9F8438046E1
:10A0100008A900681F4681E80C00DDE90A4522F026
:10A020008CF946683846FFF7B9FF814630B122F017
:10A0300088FB22462B46484622F003FB164AD8E905
:10A04000019E002394461168013101D1517C49B130
:10A0500001330A2B02F15802F5D1BDE8F843002084
:10A0600002B07047582253430CEB03004CF80370C6
:10A0700000220023C0E9019EC0E90623C6600182D8
:10A0800080F8501041657379002BE6D122462B46AB
:10A0900022F07BFBE1E700BF901E00202DE9F04F8E
:10A0A000A3B001F02BF8044600287FD0037A47685C
:10A0B0000293837A0393036901930DF1380BA7F19F
:10A0C000E003B0F80080D0F814A0DFF834910493D6
:10A0D00018AD5E46D9F800200023013246F8043B53
:10A0E00045F8043B37D0D9F80C20444990680592D4
:10A0F000FCF770F9059A60B9D9F8041088B2B84233
:10A1000007D1C1F30740404503D1029BB3EB116F68
:10A1100021D0039B002B5ED0927932B1049B072B98
:10A1200003D85FFA88F2072A15D099F8502092B91F
:10A13000D9F854207AB9484622F003FBD9E906122F
:10A1400051EA020035D0019B994272EB0A0230DAE3
:10A15000484622F000FB18AB9E4209F15809B9D1DC
:10A1600000255BF8040B18B1019A534622F00DFB51
:10A1700001350A2DF5D10025DFF88880284618AF73
:10A1800057F8256076B138B9214606A822F037FD88
:10A19000414606A8FFF704FC019A5346304622F0D8
:10A1A00050FA012001350A2DEAD1400023B0BDE864
:10A1B000F08FD9F80C20517909B146F8049C99F830
:10A1C000101019B112790AB145F8049C89F8508031
:10A1D000C9F85470BFE799F81020002ABBD099F84D
:10A1E00050204245B7D1D9F85420BA42B3D148469D
:10A1F00022F0A7FA45F8049CADE700BF6C85050086
:10A20000901E002050590500174B2DE9F04F0546D0
:10A21000002002461F4684464FF0000A4FF0000B14
:10A22000D3F80090B9F1000F18D0D3E9028E45455C
:10A2300071EB0E0414DA90420AD0060107EB001409
:10A24000C4E9028E47F80690C3E902ABC3F800C028
:10A2500001300132052A03F11003E1D1BDE8F08F8E
:10A26000C3F800C0F5E700BF5824002070B5094BC3
:10A27000094D1E6800241C602EB1284622F062F8A9
:10A280000134B44201D1304670BD2035284622F059
:10A2900056F8F5E7804E0020A8240020DFF858C0CB
:10A2A0002DE9F04100214FF0140E0369994220DAA4
:10A2B00050F82130232B1CDC0EFB03C8024600247F
:10A2C00058F8045B35B903EB8303234401314CF8A0
:10A2D0002320EAE72F691669B74207DB03D1EF6A4B
:10A2E000D66AB74202DB48F8042C2A460134052C12
:10A2F000E6D1BDE8F08100BFAC4B002008B5424973
:10A3000042482AF04EF94248FFF7C8FF4148FFF79C
:10A31000C5FF4148FFF7C2FF4048FFF7BFFF404875
:10A32000FFF7BCFF3F48FFF7B9FF3F48FFF7B6FF15
:10A330003E48FFF7B3FF3E48FFF7B0FF3D48FFF749
:10A34000ADFF3D48FFF7AAFF3C48FFF7A7FF3C4899
:10A35000FFF7A4FF3B48FFF7A1FF3B48FFF79EFF35
:10A360003A48FFF79BFF3A48FFF798FF3948FFF755
:10A3700095FF3948FFF792FF3848FFF78FFF3848BD
:10A38000FFF78CFF3748FFF789FF3748FFF786FF55
:10A390003648FFF783FF3648FFF780FF3548FFF761
:10A3A0007DFF3548FFF77AFF3448FFF777FF3448E1
:10A3B000FFF774FF3348FFF771FF3348FFF76EFF75
:10A3C0003248FFF76BFF3248FFF768FF3148FFF76D
:10A3D00065FF3148FFF762FF3048FFF75FFF304805
:10A3E000FFF75CFF2F48FFF759FF2F48FFF756FF95
:10A3F0002E48FFF753FF2E48FFF750FF2D48FFF779
:10A400004DFF002008BD00BFB9A6020008220020B1
:10A41000B40B00207C0B0020440B00200C0B002010
:10A42000D40A00209C0A0020640A00202C0A002084
:10A43000F4090020BC090020840900204C090020F8
:10A4400014090020DC080020A40800206C0800206B
:10A4500034080020FC070020C40700208C070020DF
:10A46000540700201C070020E4060020AC06002052
:10A47000740600203C06002004060020CC050020C5
:10A48000940500205C05002024050020EC04002039
:10A49000B40400207C040020440400200C040020AC
:10A4A000D40300209C030020640300202C03002020
:10A4B000F4020020BC0200202DE9F04F484891B082
:10A4C0002AF07DF80023474A194652F8230050B974
:10A4D000454BD3F80080B8F1000F0AD111B0BDE8A8
:10A4E000F04FFFF7C3BE42F823100433142BECD116
:10A4F000EEE73E4E4FF00009882303FB09F0841974
:10A500003258002A52D146F80080DFF8F0B0384ABD
:10A51000D8F81070DBF800A013683649574528BFFB
:10A52000574601331360083027EAE772520130447E
:10A530002AF04FFD7B01DFF8BCC067600393BE4685
:10A54000F2453ED8882303FB09660023356A04934D
:10A55000AAEB0707D8F82CC0274BCBF80070EF17F1
:10A56000C3E90057CDE905C5079704AB0FCB08AC8D
:10A5700084E80F0008F11406CDE909C50B9794E8AB
:10A580000F000CAD85E80F00D8F8140021F0D5FEBF
:10A5900098B183689C6884B110AB13E903008DE81F
:10A5A0000300304695E80C00A04706E009F10109D8
:10A5B000B9F1040FA1D1FFF759FE0B4A0023136034
:10A5C0008CE7039B0CEB03050FCD64460FC495E8A5
:10A5D0000F000EF1010E84E80F000CF1200CAFE724
:10A5E00008220020582400207C4E00203822002021
:10A5F000A84B0020A824002000000020804E00204E
:10A60000F8B50024294B6FF000452246196869B15E
:10A61000D3E90201A84271EB040602F10102BCBFBA
:10A6200005460C46052A03F11003EFD1204ED6E96A
:10A630000023A34208BFAA4233D02AF03EF94FF4C8
:10A640007A77A0FB070307FB0131C30B43EA4143C1
:10A65000AB424FEAD131A14124DA2AF02EF9A0FB16
:10A66000070307FB0131C00B40EA4140281A64EBA5
:10A67000D131C90341EA504140F2E733C003C01869
:10A680004FF47A724FF0000341F10001FBF738FDFF
:10A6900002460B46074820F079FC0028A8BFC6E90F
:10A6A0000054F8BD00221346F4E700BF58240020F0
:10A6B000002200200822002038B5114CD4E90032D5
:10A6C00013431CD02AF0F9F803460D46D4E90001E3
:10A6D0004FF47A74A3FB043204FB0522DB0B43EA3C
:10A6E000424383424FEAD2328A4108DBFFF78CFDB6
:10A6F00008B9FFF7E1FEBDE83840FFF781BF38BD7C
:10A70000002200202DE9F04FA3B00446FFF74AFADB
:10A71000002800F093812046FFF744FA0546002800
:10A7200000F0A781067A002E00F0CE80964EDFF86A
:10A7300070923468D0E90478002C6AD1D0F804A073
:10A7400022F0E7F9914B1A685B680593142303FB29
:10A750000A9384460492039321466FF0320E039AC3
:10A7600052F8043B039283B193F93400013036D0A0
:10A77000D3F830A003F13300AEEB030B0BEB000971
:10A78000CA4528DC01310529E9D1002C00F071818E
:10A79000FFF736FF7E4B37681B68052B00F0838080
:10A7A0007C4E7B4A591C06EB431611600AA82946C9
:10A7B00035460AAE21F001FE0FCE0FC596E80F0018
:10A7C00085E80F000225002C6ED1FFF775FE2846A4
:10A7D00023B0BDE8F08F10F9019FE145CED1586A52
:10A7E000049A10EB0209059A42EBE0704F4578EBB2
:10A7F0000000C7DB4FEA041906EB041046F80930E5
:10A800001B6A13EB070948EBE373C0E902930134B9
:10A81000B8E738464146FFF7F7FC6B680024274647
:10A82000A44603EB830E4FEA0C1206EB0C13B1584F
:10A830000EEB070259F8222061B923460022042BAF
:10A840002DDDFFF7DDFE524B37681B68052BA7D1C6
:10A850000025B8E7002AF0D0D1F82C80D06A8045D6
:10A860000ED10FCB013706EB0418052F88E80F0037
:10A8700004F101040CF1010CDFD0BCF1050F05E07F
:10A8800009691369994203DD0137052FCBD1D4E75C
:10A8900002DA0CF1010CF0E78045FADDF4E719016A
:10A8A00001337250CBE70025012C394A3B6905D0B2
:10A8B000126893428BD1384B1F6088E7126893422D
:10A8C00085D1354B1F6080E7FFF7F6FDDFF8D490A8
:10A8D0006B68324F07932B690593D9F800300690C7
:10A8E0000993B846099B9E420CDB069B012B40F363
:10A8F000C08029461AA821F060FD1AA821F01FFD8A
:10A90000022564E7D7F800C07B6803934FF0000E80
:10A91000DCF810300893BA46CDF810E00124DDE9E8
:10A920000332934211D18837BEF1000F00F08480CA
:10A93000039A882303FB0683013A5A609CF8283067
:10A9400093B3002C34D1012541E7BEF1000F11D0A3
:10A950000AF1080BBBE80F00AAF118040FC49BE82A
:10A960000F0084E80F000024049B013304930AF1D4
:10A97000200AD4E7DAF81430079A9A4214BF002468
:10A980004FF0010EF0E700BF58240020080000201F
:10A99000804E0020A82400207C4E00203822002079
:10A9A000AC4B0020A84B0020039B089A93422CD16B
:10A9B00000231293DCF82CA0059BCDE913A34FEAEA
:10A9C000E37ECDF854E012AB0FCB16AD85E80F0057
:10A9D0000CF11407059BCDF85CA0CDE9183E95E875
:10A9E0000F000DF1680A8AE80F00DCF8140021F06E
:10A9F000A4FC50B18368DD683DB1DDE91C018DE840
:10AA0000030038469AE80C00A847002C9BD0D9F8E0
:10AA10000040013CA642C9F8004006D0882202FB53
:10AA2000048102FB06802AF0D4FA8822002102FB6E
:10AA300004802AF0DCFA86E7013653E7204600F06E
:10AA40005DFBB0B1204600F059FB837A8BB14368BF
:10AA5000E03B072B02D80378072B0AD0064BD0E93E
:10AA60000412D3E9000388429341BCBF034BC3E9FE
:10AA700000120025ABE600BF000000200800002007
:10AA800010B5094B00211A465C68844205D15C7EF2
:10AA90001CB9582303FB012010BD01310A2903F121
:10AAA0005803F1D10020F7E7282500202DE9F041D7
:10AAB0000B4E337883B10B4CDFF82C8000254FF020
:10AAC000FF3720464146013529F06BFD0A2D44F839
:10AAD000247C04F15804F4D100203070BDE8F081EA
:10AAE000A819002050250020DFC9040082B02DE9FC
:10AAF000F84308A981E80C0000681E46DDE90A5702
:10AB000021F01BFCD0F804803046FFF7B9FF044663
:10AB1000A8B9334B01461A46586801302ED1582344
:10AB2000594300235418535000200021C4E9080160
:10AB300001226660C4F8148022742283A3764FF049
:10AB4000010904F1280684F81090304629F037FDF9
:10AB5000773008BF84F819902368D8F8042093420E
:10AB60003CBF013323602268D8F804309A420FD1E9
:10AB70002A463B46204621F0F9FE04E001310A292D
:10AB800003F15803C8D1BDE8F843002002B0704774
:10AB900063691B685D1947F10007C4E9085729F08C
:10ABA0008CFE4FF47A72A0FB020302FB0131C30B4F
:10ABB00043EA4143EC1A002CE5DD4FF4004540F236
:10ABC000E73000214FF47A720023E4FB0501FBF724
:10ABD00097FA02460B46304620F0D8F9D3E700BF7B
:10ABE00028250020F8B5FEF7DDFF044628B3037AD8
:10ABF0001BB3164D0026012755F8243C5A1C1ED0C5
:10AC0000626893421BD0284629F0D9FC15F80E3C07
:10AC1000773008BF05F80F7C8BB90D4D582303FB27
:10AC200006552846D4E9042321F0A0FE2B7C23B945
:10AC3000D4E90423284621F049FE0020F8BD01365E
:10AC40000A2E05F15805D7D1F7E700BF502500209F
:10AC50002825002008B5094B1B7823B1012B06D00D
:10AC60006FF0850008BDBDE8084022F05BB9FFF732
:10AC700089F9BDE80840013000F038BE844E00205C
:10AC800008B5094B1B7823B1012B06D06FF0850066
:10AC900008BDBDE8084022F04DB9FFF777F9BDE8DF
:10ACA0000840013000F048BE844E002002490348AD
:10ACB000012202F005BE00BFBF87002041860500CB
:10ACC00070B500250646056000F082FB044680B1A1
:10ACD00001F06EFA022806D000F092FC01237060A9
:10ACE0003370304670BD064B1B78012BF4D02846DC
:10ACF000F5E701F05DFA0228EED123462046EEE7A3
:10AD0000BF87002073B502F02FFF0C4802F068FEE9
:10AD1000044678B90A490B480B4E29F042FC6D46AF
:10AD20000A4802F007FE2846FFF7CAFF95E803002D
:10AD300086E80300204602B070BD00BF840D0020ED
:10AD4000ADAC020098280020844E002055860500F6
:10AD500082B00DF1080C0CE9030019469DF8003093
:10AD600010461BB1012B05D0054A00E0054A02B090
:10AD700020F05CBF019B044A02B020F057BF00BF27
:10AD80006A8605005F8605006386050030B589B0D8
:10AD900001AD134C2846FFF793FF94E80C0095E8AB
:10ADA000030021F037FEC0B9FFF760F8FFF78EF817
:10ADB000FFF7E2F8FFF74EFFFFF762FF95E80300A9
:10ADC0000A2305AA84E80300FFF7C2FF94E8030002
:10ADD00003AB83E8030000F057F809B030BD00BFB3
:10ADE000844E002070B50C4615460B4900221E46C5
:10ADF00022F0A3FF08B9002070BD012C08D107493B
:10AE000022463046A8470028F6DDFFF7BFFFF2E7ED
:10AE10006FF01500F0E700BF4B860500BF870020EC
:10AE200008B5074B1A78824208D018704FF4F01218
:10AE30000023044820F0DEF8FFF7A8FF002008BD3B
:10AE4000BF87002098280020034B1878B0FA80F0C4
:10AE50004009FFF7E5BF00BFBF87002008B5094BD9
:10AE60001B7823B1012B06D06FF0850008BDBDE82B
:10AE7000084022F067B8FFF78DF8BDE808400130C0
:10AE800000F082BD844E00207FB56B4683E803004E
:10AE900093E80300002206AB03E90300039202A833
:10AEA000034A029221F04BFA07B05DF804FB00BFA1
:10AEB000085A050006281FB530D830BB11B900204C
:10AEC00004B010BD174B1A68012383401343154C7F
:10AED0009A422360F3D08DF800008DF8011029F01C
:10AEE000ECFC4FF47A72A0FB020302FB0131C00BB1
:10AEF00040EA4140C90BCDE9020104AB13E90F0060
:10AF000004B0BDE8104000F0C7B8064B1A6800292D
:10AF1000DAD10123834022EA0303D8E76FF015005A
:10AF2000CEE700BF1C4F0020014B196821F0E7BDA0
:10AF30001C4F00202DE9F04715464FF4D8724A43C4
:10AF40001F460C2303FB05223C4B2DED028B1344C3
:10AF500080460E4693E807008CB005AC84E80700F5
:10AF60009DED168B21F0E9F98146002860D0059807
:10AF7000CDE908658DED0A8B21F0DFF98368D3F800
:10AF800004A0BAF1000F09D00CAB13E90300DDE90E
:10AF900008238DE803002046D04758BBD9F8083075
:10AFA0001B78012B13D0022B29D0002B42D1CDE9E5
:10AFB00008658DED0A8B0CAB029713E903008DE851
:10AFC00003002B463246204621F0C4FD12E0CDE9B5
:10AFD00008658DED0A8B02970AAA92E803008DE8B6
:10AFE000030008ABB8F1FF0F0CCBECD02146404674
:10AFF00021F026FF0CB0BDEC028BBDE8F087CDE957
:10B0000008658DED0A8B02970AAE96E803008DE87D
:10B01000030008AD95E80C002146002021F010FF48
:10B02000029796E803008DE8030095E80C00CAE754
:10B030000120DFE76FF08500DCE700BF145A050050
:10B040002DE9F34DDDE90AABDFF8488007460D46F0
:10B0500016461AB10E4B1B6848F82130062458F8E2
:10B060002510E0B221F04BFD30B9013CF7D26FF072
:10B07000850002B0BDE8F08DCDE900AB33462A462D
:10B0800021463846FFF756FF0028F2DDEDE700BF06
:10B090001C4F00208C4E002010B58AB06C4684E80E
:10B0A0000F0000230593064B049394E80F000AACAD
:10B0B00004E90F0004A821F042F90AB010BD00BF56
:10B0C000E465050084B030B589B00CAC84E80F00AD
:10B0D000002301930CAD084B00930FCD02AC0FC4BD
:10B0E00095E8030084E80300684621F028F909B0D8
:10B0F000BDE8304004B07047EC6505000268034BC2
:10B100009A420CBF08300020704700BFEC65050074
:10B110007FB56B4683E8030093E80300002206AB8B
:10B1200003E90300039202A8034A029221F007F9FF
:10B1300007B05DF804FB00BFF0650500074B1A7807
:10B14000074B82B0162102FB013301938DF80020DA
:10B1500002AB13E9030002B0FFF7DABFC787002094
:10B16000C887002002490348012202F0A9BB00BFA2
:10B17000C7870020FE86050070B503788AB00446B4
:10B180000E4607AD032B20D8DFE803F002191B1D84
:10B1900011492846FBF728F9059563780493A378AD
:10B1A0000393E37802932379019363790093A3795E
:10B1B0000A4A1E21304620F039FD0AB070BD084908
:10B1C000E7E70849E5E70849E3E7084A0A2128468E
:10B1D00020F02CFDE0E700BF118705003A8705004D
:10B1E000188705001F87050029870500338705009C
:10B1F0002DE9F0418AB00D46164628496A460446B4
:10B200001F4622F09AFDF8B10098E8B10A2201A980
:10B2100020F0D0FD019B1B7803BB162D1ED1C4B2BC
:10B22000042C1BD8DFF888806C432A4608EB040105
:10B230003846B047002813DD04F10F0002A940444E
:10B24000FFF79AFF00200BE015496A46204622F0DE
:10B2500074FD78B1009B6BB9012D04D06FF015001F
:10B260000AB0BDE8F0810F492A463846B04700EAE7
:10B27000E070F5E70C496A46204622F05EFD0028A2
:10B28000E0D000980028DDD0072DE7D129F05FFE3F
:10B290000028D7D105492A46E7E700BF5D870500AA
:10B2A00002870500C787002066870500C087002049
:10B2B000C887002010B592B0044625F058F901A9BE
:10B2C000FFF75AFF09A9204606F08CFB9DF82530B0
:10B2D000012B13D10A481FF0F1FD204625F047F954
:10B2E000084B19780F22162313FB01230649194432
:10B2F00021F0CCFC10B905481FF0E0FD12B010BDE4
:10B30000000E0020C7870020C8870020100E0020F4
:10B3100008B5074B074819780F22162313FB0123A2
:10B320001844054921F0B2FCB0FA80F0400908BD8C
:10B33000C7870020C8870020F08A05002DE9F0416A
:10B340000C468EB005464FF0160806A9204615FBA0
:10B3500008F7FFF711FF0D4E216807F10F0293194F
:10B36000B150A2889A80A2799A7109492A4601A807
:10B3700020F088FC4246F11901A802F0A1FA054824
:10B380001FF09CFD0EB0BDE8F08100BFC887002013
:10B390007B870500100E002038B50F23162414FB00
:10B3A0000034094B09491C440546204621F06EFC37
:10B3B00048B12146002004F065FB28460349BDE85A
:10B3C0003840FFF7BBBF38BDC8870020F08A0500B2
:10B3D00010B5124B12491A7816240F2314FB0234AD
:10B3E000104B1C448AB0204621F050FC10B90020BC
:10B3F0000AB010BD2146002006F074FA0446002869
:10B40000F5D001A906F0EEFA204624F092FF9DF84F
:10B410002400831E58425841EAE700BFC787002036
:10B42000F08A0500C8870020F0B58DB0FFF770FFE7
:10B4300098B9FFF7CDFF80F001035B00DBB2214D2F
:10B440002A7803EB0213112B09DC022B2DD0102BD1
:10B4500023D0002420460DB0F0BD0223EFE7202BBF
:10B460001BD0122BF5D105F0F3F900232B70044605
:10B470000028EFD1144F0FCF02AE0FC63B6813491F
:10B48000336004220094234602A805F0AFF9044675
:10B490000028DFD102232B70DBE705F0D9F9002368
:10B4A0002B7004460028D4D0D4E7074E0FCE07AC4B
:10B4B0000FC433682360002304490093042207A8C3
:10B4C000E3E700BF36880020105705000C66050032
:10B4D00030B593B0054625F04AF801A90446FFF7B8
:10B4E0004BFE09A9284606F07DFA9DF82530012B70
:10B4F00005D1FFF70DFF214618B904F0C3FA13B0C8
:10B5000030BD034B1878FFF719FFFFF78DFFF6E703
:10B51000C787002030B593B00D4609A9044606F050
:10B5200061FA9DF82530012B0BD1204625F01FF83C
:10B5300001A9FFF721FE0E4B00221A701DB1FFF783
:10B5400073FF13B030BDFFF76FFF204625F00FF8F3
:10B55000084B19780F22162313FB012306491944BF
:10B5600021F094FB0028ECD104481FF0A7FCE8E789
:10B5700036880020C7870020C8870020100E0020D2
:10B5800010B5002004F09AFB0446D8B902F0ECFA9A
:10B590000D4802F025FA0446A0B90C490C4829F0E0
:10B5A00000F80C4802F0C6F90B4802F0C3F90B484A
:10B5B00006F072F90A4806F06DFC0A4806F084FCB1
:10B5C000FFF732FF204610BDE80D002065B10200F4
:10B5D000C82800208B8705008F870500C80D002034
:10B5E000AC0D00209C0D002008B5044B1878FFF727
:10B5F000D3FEBDE80840FFF717BF00BFC787002094
:10B60000014B1878704700BFC7870020042808B591
:10B6100010D80A4B1A7882420AD018704FF4F012F0
:10B62000002307481FF0E6FCFFF7FEFEFFF786FD4C
:10B63000002008BD6FF02100FBE700BFC787002096
:10B64000C8280020054B187805230130B0FBF3F320
:10B6500003EB8303C01AC0B2FFF7D8BFC78700202F
:10B66000054B187805230430B0FBF3F303EB830399
:10B67000C01AC0B2FFF7CABFC7870020042838B578
:10B680001DD80F23162414FB00340E4B0E491C4406
:10B69000204621F0FBFA18B96FF01204204638BD9D
:10B6A0002146002006F01EF905460028F4D013219B
:10B6B00024F05FFF0446284624F03BFEEEE76FF0DF
:10B6C0002104EBE7C8870020F08A0500044B0548F9
:10B6D00019780F22162313FB01231844704700BF6B
:10B6E000C7870020C887002070B5164D90B004466B
:10B6F0000146284621F0CAFAE8B108A92846FFF712
:10B700003BFD1149284621F0C1FA0646B0B9694609
:10B710002046FFF731FD23682B60A388AB80A37917
:10B720000A49AB71324608A820F0ACFA072221463C
:10B7300008A802F0C5F8002010B070BD6FF00B0033
:10B74000FAE700BFC0870020F08A05009287050055
:10B750001FB583240294044C0194BDF81840009452
:10B7600026F02CFA04B010BDCE87050007B5064BB5
:10B7700000930649064805234FF440721FF0A4FBCE
:10B78000002003B05DF804FB2C6605001089002042
:10B79000F828002010B5FFF799FF06490722044654
:10B7A00029F0D9FB28B121460020BDE8104006F061
:10B7B00099B810BDF08A0500F0B5164E164F89B045
:10B7C00000220023694630461FF032F9054608B1D1
:10B7D00009B0F0BDFFF7DEFF04460028F8D01822BC
:10B7E000294602A829F003FC08230DEB030120469B
:10B7F0000397CDF810D0ADF8143008F0ADFA013051
:10B8000003D10221204624F038FE204624F091FD89
:10B81000D6E700BF781B0020986605002DE9F041AF
:10B82000164FDFF85C808AB001AE0022002331465B
:10B8300038461FF0FDF8054610B10AB0BDE8F081AA
:10B84000FFF7A8FF04460028F7D01822294604A8CD
:10B8500029F0CDFB0C2304A92046CDE90586ADF8DF
:10B860001C3008F079FA013003D10221204624F07F
:10B8700004FE204624F05DFDD7E700BF481B0020F2
:10B88000E86605002DE9F041164FDFF85C8088B0CE
:10B8900001AE00220023314638461FF0C9F80546A4
:10B8A00010B108B0BDE8F081FFF774FF044600282E
:10B8B000F7D01822294602A829F099FB042302A9EF
:10B8C0002046CDE90386ADF8143008F045FA013082
:10B8D00003D10221204624F0D0FD204624F029FD8A
:10B8E000D7E700BFA81B00203867050037B505461D
:10B8F00040F6CD42014600230C481FF043F80446B1
:10B9000078B110F10B0F09D10022002369460748D6
:10B910001FF08EF82846FFF7E9FF0446204603B0E3
:10B9200030BD0349034828F025FEF7E7781B0020C7
:10B93000400E0020F828002030B5054685B040F6BE
:10B94000CD42014600230D481FF01CF8044678B193
:10B9500010F10B0F09D10022002301A907481FF0A5
:10B9600067F82846FFF7E8FF0446204605B030BDDB
:10B970000349044828F0FEFDF7E700BF481B0020FC
:10B98000300E0020F828002037B5054640F6CD429D
:10B99000014600230C481EF0F5FF044678B110F173
:10B9A0000B0F09D10022002301A907481FF040F81E
:10B9B0002846FFF7E9FF0446204603B030BD03499F
:10B9C000034828F0D7FDF7E7A81B0020200E002031
:10B9D000F82800201FB50023CDE90233044B8DF871
:10B9E0000C0001A8019320F0AAFC05B05DF804FB4F
:10B9F000B467050008B500F053FCBDE808400149F4
:10BA000028F0B8BD640F002007B5084828F065FB92
:10BA100048B14FF4F0120023CDE90023044800227E
:10BA2000002320F02BF803B05DF804FBAC540500B4
:10BA3000481A002008B5FEF78FF810B96FF085009E
:10BA400008BDFDF7E1FE38B10138C0B20128F5D8D4
:10BA5000034828F079FF01E0FFF7D6FF0020EFE769
:10BA6000481A002037B50E4CA5682D21EB682046FA
:10BA7000984790B92D212B696A462046984760B9AE
:10BA8000084C00982378834207D0C0B2207001F0A0
:10BA9000EFFE10B92078FFF79DFF03B030BD00BF67
:10BAA000AC5405003888002008B5054828F015FB7F
:10BAB00018B1FFF7A9FF002008BD6FF01200FBE7E7
:10BAC000AC54050030B50C4B187887B090B90B4AD0
:10BAD00052686AB90A4D01221A700FCD01AC0FC429
